:100000000C94AC340C94DD340C94DD340C94DD345D
:100010000C94DD340D94E8610C94DD340D94FC29CE
:100020000D9473610C94DD340C94DD340C94DD3448
:100030000C94DD340C94DD340D948F330D948430A6
:100040000C94DD340C9498A10C94DD340C94DD34C4
:100050000C94DD340C94DD340C94DD340D9448158F
:100060000C94DD340D942A760C94DD340C94DD343C
:100070000C94DD340C94DD340C94DD340C94DD34BC
:100080000C94DD340C94DD340C94DD340C94DD34AC
:100090000D94E6750C94DD340C94DD340C94DD3451
:1000A0000C94DD340C94DD340D940D000C94DD348F
:1000B0000C94DD340C94EFFF0C94DD340C94DD349F
:1000C0000C94DD340C94DD340C94DD340C9462FF1C
:1000D0000C94DD340C94DD340C94DD340C94DD345C
:1000E0000C94DD349D949F949D949F949D949F9433
:1000F000A194A394B9B3D5B3E7B3F4B3FEB32DB4CD
:10010000A3B343B455B451B4A3B357B474B488B4CF
:100110009AB450EA50EA53EA50EA53EA5FEA62EAD4
:1001200007ED10EDB5EC84EC54ECFFEF4BED6AEE0F
:1001300000EF56EF72EFA9EF0DFEBEFD0DFE10FEB3
:1001400081FEB0FE0DFE0DFECFFE45027B02950145
:10015000C7011F02F70159016D016101E301FD01B2
:10016000AD013B02C90183012F025B02EB0171016A
:10017000ED0109025F02C901D90181013502430283
:10018000F10101027D017502AF0107025902E70189
:10019000CD015D0263013902DF011902E9016D023F
:1001A0009D01D50151020302370273020502550178
:1001B0004102DB018102AB017D0251016F0153025B
:1001C0008701490211025701BF018B0151012B0226
:1001D0007301B501084AD73B3BCE016E84BCBFFD1D
:1001E000C12F3D6C74319ABD56833DDA3D00C77F07
:1001F00011BED9E4BB4C3E916BAAAABE00000080A0
:100200003F05A84CCDB2D44EB93836A9020C50B92E
:10021000918688083CA6AAAA2ABE000000803F0753
:10022000634236B79BD8A71A39685618AEBAAB5591
:100230008C1D3CB7CC5763BD6DEDFD753EF6177256
:1002400031BF000000803F08000000BE9224491228
:100250003EABAAAA2ABECDCCCC4C3E00000080BE4C
:10026000ABAAAAAA3E00000000BF000000803F0029
:1002700000000000084178D3BB4387D1133D190E1D
:100280003CC3BD4282AD2B3E68EC8276BED98FE185
:10029000A93E4C80EFFFBE01C4FF7F3F000000007D
:1002A00000000D942D920D941C1C0D94F78F0D944D
:1002B000EC910D94C8150D94B9420D9438510D94DC
:1002C00093520D94953C0D94C23E0D948B510D9418
:1002D000431B0D947EAA0D94A51B0D94DE150D9461
:1002E000BE910D94AE3C0D9419920D9483350D94EE
:1002F0004F700D94B0500D94A7380D94703E0D942E
:10030000C8070D94C63C0D949C3C0D944D8C0D94E7
:10031000CE910D94856E0D9405920D94C16F0D9440
:10032000A7540D946E6F0D9458360D9480150D944E
:10033000490D0D948B140D94F5510D947E900D94F0
:1003400068170D94E98D0D94361B0D9420700D9453
:1003500054530D947C480D94AA910D948B3C0D94AC
:100360008D3E0D94A7420D946E480D9423920D94EA
:10037000B9460D94631B0D9401360D940B360D9404
:10038000FB910D9468500D9488350D94581B0D9475
:100390008D150D94CF3C0D948E1C0D94AB3E0D9499
:1003A000184B0D94548E0D94C78C0D9473900D942E
:1003B00056450D94C23C0D949B910D941B090D94D0
:1003C000A88E0D9424360D94983C0D947F350D9491
:1003D000A23E0D9494900D94AA3C0D94B43C0D94BF
:1003E000CA460D94543E0D9476470D94C2460D9422
:1003F000A6150D941A360D941F360D94873C0D9456
:10040000916F0D94613E0D94E7900D9413900D94AF
:10041000903E0D94B83C0D94348E0D9476170D9447
:1004200028360D94E2910D94FE370D949D440D9461
:100430006B080D94C4900D942C710D944D8D0D94FA
:100440009F150D941F8C0D94151F0D94AD170D94D1
:10045000B2450D9497440D940F920D9410360D945F
:10046000A03C0D94FA440D94334B0D94CA3C0D946A
:10047000D7900D94CB3E0D94913C0D9479350D940D
:10048000948D0D9496910D944B3E0D9464150D949E
:10049000FC8C0D94D8910D94E51F0D94B76F0D94BD
:1004A00082760D9468900D94C6910D947E6F0D9494
:1004B00006360D94993E0D94A63C0D94BF3E0D94C6
:1004C000BC3C0D949D540D947B8C0D9415360D946D
:1004D000C06D0D94C5470D9411520D9489900D94E3
:1004E0000C380D94A46F0D9441900D948A3E0D9498
:1004F00020460D942B1C0D9472150D94B4910D94FF
:1005000087A40D94A0916E616E00696E66004E41E5
:100510004E494E495459494E46CDCCCC3D0AD7237D
:100520003C17B7D13877CC2B329595E6241FB14FC5
:100530000A000020410000C84200401C4620BCBE0A
:100540004CCA1B0E5AAEC59D7400407A10F35A0077
:10055000A0724E18090010A5D4E80000E8764817EC
:100560000000E40B54020000CA9A3B000000E1F5D1
:1005700005000080969800000040420F000000A097
:100580008601000000102700000000E803000000C2
:10059000006400000000000A0000000000010000EC
:1005A0000000002C76D888DC674F0823DFC1DFAE5F
:1005B00059E1B1B796E5E3E453C63AE65199769628
:1005C000E8E6C28426EB898C9B62ED407C6FFCEFF1
:1005D000BC9C9F40F2BAA56FA5F490055A2AF75C1F
:1005E000936B6CF9676DC11BFCE0E40D47FEF520D1
:1005F000E6B500D0ED902E03009435770500808499
:100600001E080000204E0A000000C80C33333333AC
:100610000F986E12831141EF8D2114893BE6551618
:10062000CFFEE6DB18D1844B381BF77C1D901DA450
:10063000BBE424203284725E228100C9F124ECA143
:10064000E53D276364696E6F70737578585B0025AC
:1006500064206279746573207772697474656E20A2
:10066000746F20454550524F4D2061742061646481
:100670007265737320307825303478004433202D30
:1006800020526561642F5772697465204545505248
:100690004F4D0A00442D31202D20456E646C65734A
:1006A00073206C6F6F700A005344207072696E740F
:1006B000696E6720627974652000416374697665AC
:1006C0002045787472756465723A2000496E7661CF
:1006D0006C6964206578747275646572005A204F85
:1006E000666673657400556E6B6E6F776E20636F10
:1006F0006D6D616E643A2022004D32303020496EBB
:1007000076616C6964206578747275646572200026
:100710007A5F6D61783A20007A5F6D696E3A2000E9
:10072000795F6D61783A2000795F6D696E3A2000DB
:10073000785F6D61783A20006F70656E00545249A1
:1007400047474552454400785F6D696E3A20005234
:1007500065706F7274696E6720656E6473746F7014
:10076000207374617475730053494C454E54004EA8
:100770004F524D414C002553204D4F44453A205097
:10078000657263656E7420646F6E653A20256868D3
:10079000643B207072696E742074696D65207265A7
:1007A0006D61696E696E6720696E206D696E733A5E
:1007B0002025643B204368616E676520696E206D6B
:1007C000696E733A2025640A00456E642066696C80
:1007D00065206C69737400426567696E2066696C98
:1007E00065206C697374000A50494E444120746559
:1007F0006D70657261747572653A20252E316620C0
:100800005A20736869667420286D6D293A20252E58
:100810003366000A537465703A2025642F360A0047
:100820000A537465703A2025642F362028736B694B
:1008300070706564290A50494E44412074656D709A
:10084000657261747572653A202564205A20736858
:1008500069667420286D6D293A300A000A5A45529B
:100860004F3A20252E33660A007374617274207427
:10087000656D70657261747572653A20252E3166FA
:100880000A0025642020252E326600255320583A80
:1008900020252E356620593A20252E3566205A3AD5
:1008A00020252E35660A00536C6565702E2E2E00AD
:1008B00045303A25642052504D0A50524E303A2568
:1008C000642052504D0A00256400416476616E63D5
:1008D00065204B3D004B206F7574206F6620616C66
:1008E0006C6F7765642072616E67652100200A2055
:1008F0000A20004D323230205325690025534669C5
:100900006C616D656E742073657474696E67733A9B
:100910002044697361626C65640A00255346696C02
:10092000616D656E742073657474696E67733A0ADD
:1009300025532020204D3230302044252E32660AA7
:10094000002553526574726163743A20533D4C65BF
:100950006E67746820286D6D2920463A537065656E
:100960006420286D6D2F6D29205A3A205A4C6966F3
:100970007420286D6D290A25532020204D323037F0
:100980002053252E32662046252E3266205A252EEB
:1009900032660A25535265636F7665723A20533D7D
:1009A0004578747261206C656E67746820286D6D7F
:1009B0002920463A537065656420286D6D2F6D2996
:1009C0000A25532020204D3230382053252E326600
:1009D0002046252E32660A25534175746F2D5265C7
:1009E00074726163743A20533D3020746F206469DF
:1009F0007361626C652C203120746F20696E7465A0
:100A0000727072657420657874727564652D6F6E8E
:100A10006C79206D6F7665732061732072657472D6
:100A200061637473206F72207265636F766572699B
:100A300065730A25532020204D3230392053256418
:100A40000A0025535049442068656174626564203A
:100A500073657474696E67733A0A25532020204DBC
:100A60003330342050252E32662049252E32662020
:100A700044252E32660A002553504944207365747C
:100A800074696E67733A0A25532020204D33303144
:100A90002050252E32662049252E32662044252EF0
:100AA00032660A0025535374657073207065722096
:100AB000756E69743A0A255320204D393220582525
:100AC0002E32662059252E3266205A252E32662077
:100AD00045252E32660A255355537465702072657C
:100AE000736F6C7574696F6E3A200A2553204D330D
:100AF00035302058256420592564205A2564204526
:100B000025640A25534D6178696D756D20666565AC
:100B1000647261746573202D206E6F726D616C203C
:100B2000286D6D2F73293A0A255320204D3230331A
:100B30002058252E32662059252E3266205A252E21
:100B400032662045252E32660A25534D6178696D3F
:100B5000756D20666565647261746573202D207300
:100B60007465616C746820286D6D2F73293A0A25AD
:100B70005320204D3230332058252E3266205925FF
:100B80002E3266205A252E32662045252E32660AE0
:100B900025534D6178696D756D20616363656C6582
:100BA000726174696F6E202D206E6F726D616C20A2
:100BB000286D6D2F7332293A0A255320204D32308B
:100BC000312058256C752059256C75205A256C7577
:100BD0002045256C750A25534D6178696D756D202A
:100BE000616363656C65726174696F6E202D20733B
:100BF0007465616C746820286D6D2F7332293A0A10
:100C0000255320204D3230312058256C7520592530
:100C10006C75205A256C752045256C750A25534145
:100C20006363656C65726174696F6E3A20503D70E4
:100C300072696E742C20523D726574726163742CFB
:100C400020543D74726176656C0A255320204D3224
:100C500030342050252E32662052252E3266205404
:100C6000252E32660A2553416476616E63656420E1
:100C70007661726961626C65733A20533D4D696EAD
:100C800020666565647261746520286D6D2F732917
:100C90002C20543D4D696E2074726176656C20661F
:100CA0006565647261746520286D6D2F73292C2031
:100CB000423D6D696E696D756D207365676D656E1A
:100CC000742074696D6520286D73292C20583D6D42
:100CD0006178696D756D205859206A65726B20289E
:100CE0006D6D2F73292C20205A3D6D6178696D75CB
:100CF0006D205A206A65726B20286D6D2F73292C28
:100D00002020453D6D6178696D756D2045206A65CF
:100D1000726B20286D6D2F73290A255320204D32C8
:100D200030352053252E32662054252E326620423F
:100D3000252E32662058252E32662059252E326601
:100D4000205A252E32662045252E32660A25534824
:100D50006F6D65206F666673657420286D6D293A26
:100D60000A255320204D3230362058252E32662059
:100D700059252E3266205A252E32660A00462564F1
:100D80002025640A004D4D55203C3D202746256412
:100D9000202564270A00504944204175746F7475FA
:100DA0006E652066696E697368656421205075748C
:100DB00020746865206C617374204B702C204B6923
:100DC00020616E64204B6420636F6E7374616E7477
:100DD000732066726F6D2061626F766520696E7434
:100DE0006F20436F6E66696775726174696F6E2EEE
:100DF0006800504944204175746F74756E652066B3
:100E000061696C6564212074696D656F757400207B
:100E1000403A00543A00423A005049442041757427
:100E20006F74756E65206661696C65642120546518
:100E30006D706572617475726520746F6F2068697A
:100E4000676800204B643A2000204B693A2000205C
:100E50004B703A200020436C6173736963205049E2
:100E60004420002054753A2000204B753A20002081
:100E70006D61783A2000206D696E3A200020643A56
:100E8000200020626961733A20004361703A255363
:100E90003A25630A004155544F5245504F52545F12
:100EA000504F534954494F4E004155544F524550AD
:100EB0004F52545F46414E53004155544F52455096
:100EC0004F52545F54454D5000005A30005A310083
:100ED000593000593100583000583100456E6420B7
:100EE00073746F707320646961670044656C657426
:100EF000696F6E206661696C65642C2046696C655B
:100F00003A200046696C652064656C657465643AD6
:100F1000004E6F74205344207072696E74696E675E
:100F2000005072696E7420736176656400534420CA
:100F30007072696E7420706175736564004F4B0048
:100F40004241440052414D426F2046414E200043F1
:100F5000524153485F43414E43454C004352415335
:100F6000485F5245434F5645520043524153485FF4
:100F70005245434F5645520022283229004475708D
:100F80006C696361746520542D636F6465206967C3
:100F90006E6F7265642E00496E76616C69642054D0
:100FA00020636F64652E00556E6B6E6F776E204DFB
:100FB00020636F64653A202573200A006E6F2076E7
:100FC000616C696420636F6D6D616E64002C20003C
:100FD0002C20002C20006E2F61002C20002C2000E3
:100FE0002C20006E2F6100503A0057616974206612
:100FF0006F722050494E44412074617267657420BD
:1010000074656D70657261747572653A004155540E
:101010004F004C414E472053454C20464F524345CC
:101020004400256925250A00256925250A0022286E
:1010300031290030303030303030302D30303030E9
:101040002D303030302D303030302D3030303030A9
:10105000303030303030300020555549443A00317E
:10106000002045585452554445525F434F554E5405
:101070003A0042757A61204D4B33485400204D416F
:101080004348494E455F545950453A00312E30008F
:10109000206261736564206F6E204D61726C696EB1
:1010A000204649524D574152455F55524C3A68745B
:1010B0007470733A2F2F6769746875622E636F6D51
:1010C0002F707275736133642F50727573612D4682
:1010D00069726D776172652050524F544F434F4C87
:1010E0005F56455253494F4E3A004649524D57417B
:1010F00052455F4E414D453A50727573612D4669B8
:10110000726D7761726520004D31313320530020BC
:10111000423A0020453A00543A006F6B20006E2F8F
:1011200061003F546F736869626120466C61736847
:10113000416972204765744950206661696C656435
:101140000A002569206D696E2C202569207365636E
:1011500000496E76616C6964204D20636F64653A66
:10116000202573200A00556E6B6E6F776E20472026
:10117000636F64653A202573200A004D657368200B
:10118000626564206C6576656C696E67206E6F744D
:10119000206163746976652E002020000A4D656128
:1011A000737572656420706F696E74733A000A5AC1
:1011B00020736561726368206865696768743A20A6
:1011C000004E756D20582C593A2000206D696372CD
:1011D0006F6E730045786365737369766520626529
:1011E00064206C6576656C696E6720636F727265EA
:1011F0006374696F6E3A2000426564206C657665A1
:101200006C696E67206661696C65642E2053656E3B
:10121000736F722074726967676572656420746F9A
:101220006F20686967682E00426564206C6576658A
:101230006C696E67206661696C65642E2053656E0B
:10124000736F7220646973636F6E6E656374656437
:10125000206F72206361626C652062726F6B656ED5
:101260002E0050494E44412070726F6265206361C8
:101270006C6962726174696F6E207374617274005C
:10128000473238205730004E6F2050494E4441209D
:10129000746865726D6973746F7200736574006E43
:1012A0006F7A7A6C65004D424C004652004265618F
:1012B00074004C7A004C616E670052657600466996
:1012C0007200534E20696E76616C696400534E0063
:1012D0004D3238005245534554004D4D55524553FB
:1012E000004D32340075766C6F00746878004641AA
:1012F0004E0046414E50494E5453540050524E00F9
:1013000050696E67005052555341005345545F4336
:10131000484F505F005345545F535445505F00534E
:1013200045545F574156455F00544D435F0043525B
:101330004153485F43414E43454C0043524153485B
:101340005F5245434F5645520043524153485F4414
:10135000455445435445440043524153485F004D72
:101360003120004D30004D31313700472D636F641F
:101370006520736C6963656420666F722061206408
:101380006966666572656E74206C6576656C2E2084
:10139000436F6E74696E75653F00472D636F6465BA
:1013A00020736C6963656420666F722061206469D4
:1013B00066666572656E74206C6576656C2E20506D
:1013C0006C656173652072652D736C69636520744B
:1013D0006865206D6F64656C20616761696E2E20A1
:1013E0005072696E742063616E63656C6C65642E07
:1013F00000472D636F646520736C696365642066C4
:101400006F722061206E65776572206669726D77F4
:101410006172652E20506C65617365207570646122
:10142000746520746865206669726D776172652ED7
:10143000205072696E742063616E63656C6C6564C4
:101440002E00472D636F646520736C6963656420AB
:10145000666F722061206E65776572206669726DB5
:10146000776172652E20436F6E74696E75653F00FB
:10147000472D636F646520736C6963656420666FD4
:1014800072206120646966666572656E7420707290
:10149000696E74657220747970652E20436F6E7466
:1014A000696E75653F00472D636F646520736C69D5
:1014B00063656420666F7220612064696666657288
:1014C000656E74207072696E7465722074797065CF
:1014D0002E20506C656173652072652D736C696395
:1014E0006520746865206D6F64656C206167616953
:1014F0006E2E205072696E742063616E63656C6C31
:1015000065642E00507265737320746865206B6E7D
:101510006F6220746F2070726568656174206E6FF1
:101520007A7A6C6520616E6420636F6E74696E7583
:10153000652E00506C656173652070726573732051
:10154000746865206B6E6F6220746F20756E6C6FAF
:1015500061642066696C616D656E740052656D6FC3
:101560007665206F6C642066696C616D656E7420B1
:10157000616E6420707265737320746865206B6E91
:101580006F6220746F207374617274206C6F616479
:10159000696E67206E65772066696C616D656E7433
:1015A0002E00616E6420707265737320746865200C
:1015B0006B6E6F6200496E736572742066696C6150
:1015C0006D656E7400436F6C6F72206E6F74206374
:1015D0006F72726563740046696C616D656E74202C
:1015E0006E6F74206C6F61646564004368616E6740
:1015F000656420636F72726563746C793F004C6F31
:101600006164696E6720636F6C6F72004368616E1E
:10161000676520737563636573732100506C656142
:101620007365206F70656E2069646C657220616EF1
:10163000642072656D6F76652066696C616D656E9C
:1016400074206D616E75616C6C792E00576173202A
:1016500066696C616D656E7420756E6C6F61642077
:101660007375636365737366756C3F00506C656179
:10167000736520757067726164652E004E65772012
:101680006669726D776172652076657273696F6ED7
:1016900020617661696C61626C653A0057616974BA
:1016A000696E6720666F722050494E444120707207
:1016B0006F626520636F6F6C696E67004372617360
:1016C000682064657465637465642E205265737563
:1016D0006D65207072696E743F004372617368209B
:1016E00064657465637465642E0043686F6F736529
:1016F0002065787472756465723A0043686F6F7321
:10170000652066696C616D656E743A004E6F206D80
:101710006F76652E00536F6D652070726F626C6519
:101720006D20656E636F756E74657265642C205AEA
:101730002D6C6576656C696E6720656E666F726389
:101740006564202E2E2E00537461626C6520616DDD
:101750006269656E742074656D706572617475720E
:10176000652032312D323643206973206E65656401
:1017700065642061207269676964207374616E64B6
:101780002069732072657175697265642E00506CF2
:10179000656173652072756E2058595A2063616CBB
:1017A0006962726174696F6E2066697273742E006B
:1017B0005761697420666F7220757365722E2E2EC4
:1017C000003B53006164635F696E6974000A204FD7
:1017D000726967696E616C2050727573612069333C
:1017E0000A20202050727573612052657365617202
:1017F000636800200A200A200A2000536572766977
:101800006365207072657000416C6C204461746186
:10181000005368697070696E67207072657000535C
:10182000746174697374696373004C616E67756188
:1018300067650045524153494E4720616C6C2064F6
:1018400061746100466163746F727920524553453B
:10185000540044495341424C454400454E41424C9A
:10186000454400202873656E736F7220626F617249
:1018700064207265766973696F6E3A2553290A0090
:101880004653656E736F7220255300494E543400E1
:101890004D4B33534D4D553253004E4F4D4B3353FB
:1018A000002E014E4F4354554100414C5446414E89
:1018B000004A756C203235203230323100436F6D72
:1018C00070696C65643A2000286E6F6E652C206428
:1018D000656661756C7420636F6E66696729004A7E
:1018E000756C20323520323032312032303A333785
:1018F0003A34380020332E31302E302D5243312DE2
:101900003430373800737461727400534E20757030
:1019100064617465206661696C656400534E20756E
:1019200070646174656400416E206572726F72202C
:101930007768696C652077726974696E6720746F67
:101940002074686520534420436172642E00205542
:10195000706C6F616420696E2070726F677265735E
:101960007300205A3A0020593A0020583A00435256
:101970004153485F444554454354454458590043F6
:10198000524153485F4445544543544544590043EC
:10199000524153485F444554454354454458004DD3
:1019A00032390045787465726E616C20535049205D
:1019B000666C6173680A58464C415348206973202D
:1019C0006E6F74207265732D0A706F6E64696E6736
:1019D0002E204C616E67756167650A737769746361
:1019E0006820756E617661696C61626C652E00437A
:1019F000726173684465746563742044495341425D
:101A00004C45440043726173684465746563742097
:101A1000454E41424C4544210045787472756465D9
:101A2000722066616E20747970653A200058464CC9
:101A3000415348206E6F7420726573706F6E6469D5
:101A40006E672E002020506C616E6E657242756666
:101A500066657242797465733A2000204672656546
:101A6000204D656D6F72793A2000207C204175749D
:101A7000686F723A2000204C617374205570646165
:101A80007465643A200020536F6674776172652034
:101A9000526573657400205761746368646F6720D2
:101AA0005265736574002042726F776E206F757493
:101AB000205265736574002045787465726E616CA0
:101AC00020526573657400506F77657255700065BC
:101AD00072726F722077726974696E6720746F20FA
:101AE00066696C6500656E6473746F7073206869F5
:101AF000743A2000446F6E6520736176696E6720CA
:101B000066696C652E006F6B004D4B335320666920
:101B1000726D7761726520646574656374656420B5
:101B20006F6E204D4B33207072696E746572004287
:101B3000757A61204D4B334854204F4B2E00426C38
:101B400061636B6F7574206F636375727265642E69
:101B5000205265636F766572207072696E743F0003
:101B600053656C66746573742077696C6C2062656C
:101B70002072756E20746F2063616C69627261748B
:101B8000652061636375726174652073656E736F40
:101B9000726C657373207265686F6D696E672E0075
:101BA0005468657265206973207374696C6C206178
:101BB000206E65656420746F206D616B65205A200E
:101BC00063616C6962726174696F6E2E20506C651E
:101BD00061736520666F6C6C6F7720746865206D2B
:101BE000616E75616C2C206368617074657220464B
:101BF000697273742073746570732C2073656374D9
:101C0000696F6E2043616C6962726174696F6E20E6
:101C1000666C6F772E005072696E74657220686111
:101C200073206E6F74206265656E2063616C6962FB
:101C30007261746564207965742E20506C656173DF
:101C40006520666F6C6C6F7720746865206D616EBF
:101C500075616C2C206368617074657220466972CE
:101C600073742073746570732C2073656374696F6B
:101C70006E2043616C6962726174696F6E20666C7C
:101C80006F772E004F6C642073657474696E677390
:101C900020666F756E642E2044656661756C7420D5
:101CA0005049442C20457374657073206574632E0D
:101CB0002077696C6C206265207365742E00576113
:101CC000726E696E673A20626F7468207072696E16
:101CD000746572207479706520616E64206D6F7414
:101CE000686572626F6172642074797065206368E0
:101CF000616E6765642E005761726E696E673A2087
:101D00007072696E746572207479706520636861A1
:101D10006E6765642E005761726E696E673A206D5A
:101D20006F74686572626F61726420747970652087
:101D30006368616E6765642E0058595A2063616C50
:101D40006962726174696F6E20616C6C2072696780
:101D500068742E20536B65772077696C6C20626500
:101D600020636F72726563746564206175746F6D52
:101D700061746963616C6C792E0058595A206361F3
:101D80006C6962726174696F6E20616C6C2072693B
:101D90006768742E20582F5920617865732061720E
:101DA0006520736C696768746C7920736B657765FF
:101DB000642E20476F6F64206A6F62210058595A61
:101DC0002063616C6962726174696F6E206F6B2E43
:101DD00020582F59206178657320617265207065E5
:101DE0007270656E646963756C61722E20436F6EEC
:101DF00067726174756C6174696F6E7321005859F4
:101E00005A2063616C6962726174696F6E206661E9
:101E1000696C65642E2052696768742066726F6E03
:101E2000742063616C6962726174696F6E20706F97
:101E3000696E74206E6F7420726561636861626C94
:101E4000652E0058595A2063616C69627261746929
:101E50006F6E206661696C65642E2046726F6E74C9
:101E60002063616C6962726174696F6E20706F6962
:101E70006E7473206E6F7420726561636861626C4A
:101E8000652E0058595A2063616C696272617469E9
:101E90006F6E206661696C65642E20506C6561739D
:101EA0006520636F6E73756C7420746865206D6156
:101EB0006E75616C2E0058595A2063616C696272AC
:101EC0006174696F6E20636F6D70726F6D69736599
:101ED000642E2052696768742066726F6E74206386
:101EE000616C6962726174696F6E20706F696E7483
:101EF000206E6F7420726561636861626C652E008C
:101F000058595A2063616C6962726174696F6E20FE
:101F1000636F6D70726F6D697365642E2046726FAA
:101F20006E742063616C6962726174696F6E207097
:101F30006F696E7473206E6F74207265616368617F
:101F4000626C652E0058595A2063616C6962726137
:101F500074696F6E206661696C65642E20426564E9
:101F60002063616C6962726174696F6E20706F6961
:101F70006E7420776173206E6F7420666F756E6467
:101F80002E00506C6561736520706C616365207311
:101F90007465656C207368656574206F6E20686574
:101FA00061746265642E0044697374616E636520B8
:101FB0006265747765656E20746970206F66207441
:101FC0006865206E6F7A7A6C6520616E6420746833
:101FD000652062656420737572666163652068615F
:101FE00073206E6F74206265656E2073657420794E
:101FF00065742E20506C6561736520666F6C6C6F24
:102000007720746865206D616E75616C2C20636843
:1020100061707465722046697273742073746570A0
:10202000732C2073656374696F6E204669727374D4
:10203000206C617965722063616C69627261746998
:102040006F6E2E00506C616365206120736865655A
:1020500074206F6620706170657220756E646572A1
:1020600020746865206E6F7A7A6C65206475726979
:102070006E67207468652063616C6962726174695F
:102080006F6E206F66206669727374203420706FE3
:10209000696E74732E20496620746865206E6F7AAD
:1020A0007A6C652063617463686573207468652069
:1020B00070617065722C20706F776572206F666634
:1020C00020746865207072696E74657220696D6D28
:1020D0006564696174656C792E00506C6561736527
:1020E0002072656D6F766520737465656C2073680A
:1020F0006565742066726F6D2068656174626564E1
:102100002E00497320737465656C2073686565746F
:10211000206F6E20686561746265643F00206F66A1
:10212000203400536561726368696E67206265647C
:102130002063616C6962726174696F6E20706F698F
:102140006E7400206F662039004D65617375726989
:102150006E67207265666572656E63652068656985
:10216000676874206F662063616C6962726174696C
:102170006F6E20706F696E7400506C6561736520BE
:10218000636C65616E20746865206E6F7A7A6C6529
:1021900020666F722063616C6962726174696F6E30
:1021A0002E20436C69636B207768656E20646F6EC8
:1021B000652E004175746F20686F6D65004D656117
:1021C000737572656420736B6577733A202566209A
:1021D00025660A0046697474696E67206661696CD9
:1021E0006564203D3E2063616C6962726174696F51
:1021F0006E206661696C65642E0A0043616C6962D9
:10220000726174696F6E20737563636573732E0AF0
:1022100000416C6C20342063616C69627261746986
:102220006F6E20706F696E747320666F756E642EAA
:102230000A0078797A63616C5F6D6561737375729A
:10224000655F656E7465720A0078797A63616C5FA8
:1022500073706972616C382063783D2564206379FE
:102260003D2564207A303D256420647A3D25642034
:102270007261646975733D25642061643D25640A5B
:102280000078797A63616C5F7365617263685A2064
:102290006E6F207369676E616C0A20783D256C64EF
:1022A00020793D256C64207A3D256C640A00204F1E
:1022B0004E2D5349474E414C20617420783D256492
:1022C00020793D2564207A3D25642061643D2564A4
:1022D0000A0078797A63616C5F7365617263685A2A
:1022E00020783D256C6420793D256C64207A3D255D
:1022F0006C640A0025640A005363616E20636F7585
:102300006E74646F776E3A20000A002530327800D0
:10231000205B25662025665D206D6D2070617474DC
:1023200065726E2063656E7465720A00205B2566B7
:102330002025665D5B25665D206D6D206469766590
:102340007267656E63650A000000F000F801FC0327
:10235000FE07FE07FE07FE07FC03F801F000000081
:1023600000000000F000F801FC03FC03FC03FC0388
:10237000F801F0000000000078797A63616C5F6D0D
:10238000656173737572655F6C656176650A0020BF
:102390003C20005741524E494E473A2046726F6EDC
:1023A0007420706F696E74206E6F74207265616343
:1023B0006861626C652E205920636F6F7264696E6C
:1023C0006174653A0000000040410000C040000018
:1023D0005C430000C04000005C4300004643000036
:1023E000404100004643497465726174696F6E3AFA
:1023F000200043616C6962726174696F6E2066616E
:10240000696C65642120436865636B20746865208E
:102410006178657320616E642072756E20616761FA
:10242000696E2E00776F726C6420636F6F726469DF
:102430006E617465733A2028252E33662C20252E74
:1024400033662C20252E3366290A00437572726587
:102450006E7420706F73205A5F415849533A252E8D
:1024600033660A43757272656E7420706F7320450F
:102470005F415849533A252E33660A004166746518
:10248000722077616974696E6720666F7220746567
:102490006D703A0A43757272656E7420706F7320A6
:1024A000585F415849533A252E33660A4375727274
:1024B000656E7420706F7320595F415849533A25F7
:1024C0002E33660A007265636F7665725F6D6163B5
:1024D00068696E655F73746174655F616674657267
:1024E0005F706F7765725F70616E69632C20696ED3
:1024F000697469616C200050525553412075766CA7
:102500006F004734205330004D32362053256C7510
:10251000004D3130362053004D3232302053256487
:1025200000473120462564004D38320047393220BB
:1025300045004731204525302E336620463237305E
:1025400030004D323034205025662052256620540C
:102550002566004731205A256600505255534120C8
:102560004D424C20563100473120582566205925D0
:102570006620463330303000506F736974696F6E77
:1025800020726561642066726F6D20656570726F80
:102590006D3A004D3233202573002E67636F002C97
:1025A00020666565646D756C7469706C793A004677
:1025B000656564726174653A0047312045252D30A8
:1025C0002E336620463237303000473120453520E3
:1025D00046313230004D3833004D313039205325EB
:1025E00064004D31393020532564004D31303420A2
:1025F0005325640047323820582059004731205A6B
:10260000252E33662046383030004731205A252D9C
:10261000302E33662046252D302E3366004731207C
:1026200045252D302E3366204632373030004D3868
:10263000330000002110422063308440A550C66062
:10264000E770088129914AA16BB18CC1ADD1CEE16F
:10265000EFF13112100273325222B5529442F772E6
:10266000D662399318837BB35AA3BDD39CC3FFF3BF
:10267000DEE36224433420040114E664C774A444F6
:1026800085546AA54BB528850995EEE5CFF5ACC50F
:102690008DD55336722611163006D776F6669556C6
:1026A000B4465BB77AA719973887DFF7FEE79DD75F
:1026B000BCC7C448E5588668A77840086118022856
:1026C0002338CCC9EDD98EE9AFF9488969990AA9AF
:1026D0002BB9F55AD44AB77A966A711A500A333A26
:1026E000122AFDDBDCCBBFFB9EEB799B588B3BBBFF
:1026F0001AABA66C877CE44CC55C222C033C600CB6
:10270000411CAEED8FFDECCDCDDD2AAD0BBD688D4E
:10271000499D977EB66ED55EF44E133E322E511E05
:10272000700E9FFFBEEFDDDFFCCF1BBF3AAF599F9E
:10273000788F8891A981CAB1EBA10CD12DC14EF13E
:102740006FE18010A100C230E320045025404670A4
:102750006760B9839893FBA3DAB33DC31CD37FE3CF
:102760005EF3B1029012F322D232354214527762F4
:102770005672EAB5CBA5A89589856EF54FE52CD59F
:102780000DC5E234C324A014810466744764245444
:102790000544DBA7FAB79987B8975FE77EF71DC7AF
:1027A0003CD7D326F2369106B01657667676154694
:1027B00034564CD96DC90EF92FE9C899E9898AB9FF
:1027C000ABA94458654806782768C018E1088238E4
:1027D000A3287DCB5CDB3FEB1EFBF98BD89BBBAB0F
:1027E0009ABB754A545A376A167AF10AD01AB32A34
:1027F000923A2EFD0FED6CDD4DCDAABD8BADE89D5F
:10280000C98D267C076C645C454CA23C832CE01C83
:10281000C10C1FEF3EFF5DCF7CDF9BAFBABFD98FEE
:10282000F89F176E367E554E745E932EB23ED10ED3
:10283000F01E7C3C3E3F2F2A225C005265636F767F
:102840006572696E67207072696E742020202000A6
:10285000506C656173652077616974002220666140
:10286000696C65643A204275666665722066756CAF
:102870006C21002200256920686F7572732025691C
:10288000206D696E757465730054494D454F5554FC
:102890003A004D3131300046756C6C205258204260
:1028A000756666657200437573746F6D0054657864
:1028B00074757200536D6F6F746800656E71756525
:1028C000696E67202200446F6E65207072696E74B5
:1028D000696E672066696C65004D31313220636135
:1028E0006C6C65642E20456D657267656E6379203A
:1028F00053746F702E005072696E74657220737419
:102900006F707065642064756520746F20657272E5
:102910006F72732E20466978207468652065727224
:102920006F7220616E6420757365204D39393920CE
:10293000746F20726573746172742E202854656DF3
:102940007065726174757265206973207265736554
:10295000742E20536574206974206166746572203A
:1029600072657374617274696E6729004E6F204CD2
:10297000696E65204E756D62657220776974682096
:10298000636865636B73756D2C204C617374204CA8
:10299000696E653A20004E6F20436865636B7375FE
:1029A0006D2077697468206C696E65206E756D6244
:1029B00065722C204C617374204C696E653A20005E
:1029C000636865636B73756D206D69736D617463A6
:1029D000682C204C617374204C696E653A20004C61
:1029E000696E65204E756D626572206973206E6F29
:1029F00074204C617374204C696E65204E756D6255
:102A000065722B312C204C617374204C696E653AD1
:102A1000200053544F505045442E200024F4D4300D
:102A200050C38E20C2A24017828B7011127A910D72
:102A3000816CD90AA861E108C7586607615143064D
:102A40001E4B5D05C145A7041A411104093D9803B9
:102A5000713931034036DB0265339102D4305402C0
:102A6000802E1D02632CEE01752AC501B028A0013D
:102A7000102781018F2564012B244B01E0223401B2
:102A8000AC211F018D200D01801FFC00841EED0074
:102A9000971DDF00B81CD200E61BC600201BBC003F
:102AA000641AB200B219A8000A19A0006A189900A5
:102AB000D117910040178B00B516840031167E00A7
:102AC000B31579003A157300C7146F0058146A00E3
:102AD000EE1366008813630025135E00C7125B00C7
:102AE0006C12570015125400C111510070114F00A3
:102AF00021114B00D61049008D10470046104400AC
:102B000002104200C00F4000800F3E00420F3C0008
:102B1000060F3B00CB0E3800930E37005C0E3500DD
:102B2000270E3400F30D3200C10D3100900D30003E
:102B3000600D2E00320D2D00050D2C00D90C2B0040
:102B4000AE0C2900850C29005C0C2700350C2700F1
:102B50000E0C2600E80B2400C40B2400A00B23005D
:102B60007D0B23005A0B2100390B2100180B20008C
:102B7000F80A1F00D90A1E00BB0A1E009D0A1D008C
:102B8000800A1D00630A1C00470A1B002C0A1B0058
:102B9000110A1A00F7091A00DD091900C409190001
:102BA000AB091900920917007B0918006309170087
:102BB0004C09160036091600200916000A091500EE
:102BC000F5081500E0081400CC081400B80814003B
:102BD000A4081400900813007D0812006B0813006D
:102BE000580812004608120034081100230811008A
:102BF0001208110001081100F0071000E007100092
:102C0000D0071000C0071000B0070F00A107100088
:102C100091070E0083070F0074070F0065070E0071
:102C200057070E0049070E003B070D002E070E0048
:102C300020070D0013070D0006070D00F9060C0014
:102C4000ED060D00E0060C00D4060C00C8060C00D2
:102C5000BC060C00B0060C00A4060B0099060C0084
:102C60008D060B0082060B0077060B006C060B002E
:102C700061060A0057060B004C060A0042060A00CD
:102C800038060A002E060A0024060A001A060A0060
:102C90001006090007060A00FD050900F4050900F1
:102CA000EB050900E2050900D9050900D005090076
:102CB000C7050900BE050900B5050800AD050800F7
:102CC000A50509009C050800940508008C0508006E
:102CD000840508007C050800740508006C050700E1
:102CE000650508005D050700560508004E0507004C
:102CF00047050700400508003805070031050700B3
:102D00002A050700230507001C0506001605070015
:102D10000F0507000805060002050700FB04060072
:102D2000F5040700EE040600E8040600E2040700CC
:102D3000DB040600D5040600CF040600C904060023
:102D4000C3040600BD040600B7040600B104050074
:102D5000AC040600A6040600A00405009B040600BF
:102D600095040500900406008A040500850405000A
:102D7000800406007A04050075040500700405004F
:102D80006B04050066040500610405005C04050091
:102D900057040500520405004D04050048040500D1
:102DA000430405003E0404003A0405003504050010
:102DB000300404002C04050027040400230405004B
:102DC0001E0404001A040400160405001104040083
:102DD0000D040400090405000404040000040400B8
:102DE000FC030400F8030400F4030400F0030400EF
:102DF000EC030400E8030400E4030400E00304001F
:102E0000DC030400D8030400D4030400D00304004E
:102E1000CC030400C8030300C503030024F404D951
:102E2000201BC40C5C0E9804C4095F026507710185
:102E3000F405F900FB04B30048048700C1036900EE
:102E40005803550003034500BE023A0084023100D6
:102E500053022A002902250004022000E4011C007C
:102E6000C8011900AF011700980114008401130074
:102E7000710110006101100051010E0043010D00AD
:102E800036010B002B010B0020010B00150109007E
:102E90000C01090003010800FB000800F300080012
:102EA000EB000700E4000600DE000600D800060084
:102EB000D2000600CC000500C7000500C2000500D6
:102EC000BD000400B9000400B5000400B100040016
:102ED000AD000400A9000400A5000300A200030047
:102EE0009F0004009B00030098000300950002006F
:102EF00093000300900003008D0002008B0003008C
:102F000088000200860002008400030081000200A5
:102F10007F0002007D0002007B00020079000200B9
:102F200077000100760002007400020072000100C8
:102F3000710002006F0002006D0001006C000200D1
:102F40006A000100690002006700010066000100DC
:102F500065000100640002006200010061000100E0
:102F6000600001005F0002005D0001005C000100E4
:102F70005B0001005A0001005900010058000100E7
:102F800057000100560001005500010054000100E7
:102F900053000000530001005200010051000100E5
:102FA000500001004F0001004E0000004E000100E3
:102FB0004D0001004C0001004B0000004B000100DF
:102FC0004A000100490001004800000048000100DB
:102FD00047000100460000004600010045000000D7
:102FE00045000100440001004300000043000100CF
:102FF00042000000420001004100000041000100C9
:10300000400001003F0000003F0001003E000000C2
:103010003E0001003D0000003D0001003C000000BA
:103020003C0000003C0001003B0000003B000100B0
:103030003A0000003A0001003900000039000100A8
:1030400038000000380000003800010037000000A0
:103050003700010036000000360000003600010095
:10306000350000003500000035000100340000008C
:103070003400000034000100330000003300000081
:103080003300010032000000320000003200010075
:10309000310000003100000031000100300000006C
:1030A00030000000300001002F0000002F00000061
:1030B0002F0000002F0001002E0000002E00000055
:1030C0002E0001002D0000002D0000002D0000004A
:1030D0002D0001002C0000002C0000002C0000003E
:1030E0002C0001002B0000002B0000002B00000032
:1030F0002B0001002A0000002A0000002A00000026
:103100002A00010029000000290000002900000019
:10311000290000002900010028000000280000000C
:1031200028000000280000002800010027000000FF
:1031300027000000270000002700000027000100F2
:1031400026000000260000002600000026000000E7
:1031500026000100250000002500000025000000D9
:1031600025000000250000002500010024000000CB
:1031700024000000240000002400000024000100BE
:1031800023000000230000002300000023000000B3
:1031900023000000230000002300010022000000A3
:1031A0002200000022000000220000002200000097
:1031B0002200010021000000210000002100000089
:1031C000210000002100000021000000210001007A
:1031D000200000002000000020000000200000006F
:1031E000200000002000000020000000200001005E
:1031F0001F0000001F0000001F0000001F00000053
:103200001F0000001F0000001F0001001E00000042
:103210001E0000001E0000001E0000007B5B5052DC
:103220004E3A39395D007B5B50524E3A355D007B3A
:103230005B50524E3A305D007B5B50524E3A395DE6
:10324000007B5B50524E3A385D007B5B5245533AEF
:10325000305D5B46494C3A007B5B5245533A315DE9
:103260005B46494C3A005B50524E3A005B50464E2A
:103270003A305D005B4449413A005D5B4154423A5B
:10328000005D5B4154303A005D5B5354423A005B51
:103290005354303A00473830004D3435004D343502
:1032A000205A004737360057697A61726420737478
:1032B0006174653A2025640A004578747275646506
:1032C00072004D6F7665205A004D6F76652059006B
:1032D0004D6F766520580043726173682064657491
:1032E000656374696F6E2063616E0A626520747530
:1032F000726E6564206F6E206F6E6C7920696E0A45
:103300004E6F726D616C206D6F6465005741524E57
:10331000494E473A0A437261736820646574656375
:1033200074696F6E0A64697361626C656420696EAA
:103330000A537465616C7468206D6F646500417533
:10334000746F6C6F6164696E672066696C616D652E
:103350006E7420617661696C61626C65206F6E6C61
:1033600079207768656E2066696C616D656E742082
:1033700073656E736F72206973207475726E656405
:10338000206F6E2E2E2E004552524F523A20466923
:103390006C616D656E742073656E736F72206973F6
:1033A000206E6F7420726573706F6E64696E672C27
:1033B00020706C6561736520636865636B20636F63
:1033C0006E6E656374696F6E2E004D6F6465206369
:1033D00068616E676520696E2070726F67726573D1
:1033E00073202E2E2E0043616C6962726174650039
:1033F000536865657420252E37730A5A206F6666F8
:103400007365743A20252B312E3366206D6D0A25A5
:1034100063436F6E74696E75650A256353746172D8
:10342000742066726F6D207A65726F00506C6561F2
:103430007365206C6F61642066696C616D656E7484
:103440002066697273742E0043616E63656C00467A
:10345000696C616D656E740053656C65637420669C
:10346000696C616D656E743A0052756E6E696E6757
:103470002057697A6172642077696C6C2064656C8E
:103480006574652063757272656E742063616C6922
:1034900062726174696F6E20726573756C747320EB
:1034A000616E642073746172742066726F6D207433
:1034B000686520626567696E6E696E672E20436F6E
:1034C0006E74696E75653F005072656865617469F8
:1034D0006E67206E6F7A7A6C652E20506C65617312
:1034E0006520776169742E004C6F6164696E672096
:1034F00066696C616D656E7400506C656173652002
:10350000696E736572742066696C616D656E742096
:10351000696E746F2074686520657874727564656F
:10352000722C207468656E207072657373207468E5
:1035300065206B6E6F6220746F206C6F6164206910
:10354000742E00506C6561736520696E73657274CA
:103550002066696C616D656E7420696E746F20748D
:1035600068652066697273742074756265206F6681
:1035700020746865204D4D552C207468656E207050
:103580007265737320746865206B6E6F6220746F50
:10359000206C6F61642069742E005468652070721D
:1035A000696E7465722077696C6C207374617274D3
:1035B000207072696E74696E672061207A69672D68
:1035C0007A6167206C696E652E20526F7461746534
:1035D00020746865206B6E6F6220756E74696C2054
:1035E000796F7520726561636820746865206F70FB
:1035F00074696D616C206865696768742E20436822
:1036000065636B2074686520706963747572657397
:1036100020696E207468652068616E64626F6F6BEC
:10362000202843616C6962726174696F6E206368FF
:103630006170746572292E0053656C656374207423
:10364000656D70657261747572652077686963680D
:10365000206D61746368657320796F7572206D6188
:1036600074657269616C2E0043686F6F73652061C9
:103670002066696C616D656E7420666F7220746877
:1036800065204669727374204C61796572204361CC
:103690006C6962726174696F6E20616E642073651B
:1036A0006C65637420697420696E20746865206F8E
:1036B0006E2D73637265656E206D656E752E004E9E
:1036C0006F7720492077696C6C2063616C69627246
:1036D0006174652064697374616E636520626574EA
:1036E0007765656E20746970206F66207468652048
:1036F0006E6F7A7A6C6520616E64206865617462B1
:10370000656420737572666163652E00596F75205C
:1037100063616E20616C7761797320726573756D7A
:1037200065207468652057697A6172642066726FDB
:103730006D2043616C6962726174696F6E202D3E09
:103740002057697A6172642E00506C656173652040
:10375000636865636B206F75722068616E64626F69
:103760006F6B20616E6420666978207468652070D4
:10377000726F626C656D2E205468656E2072657381
:10378000756D65207468652057697A61726420627E
:1037900079207265626F6F74696E67207468652046
:1037A0007072696E7465722E00416C6C20697320B2
:1037B000646F6E652E204861707079207072696E3A
:1037C00074696E672100496620796F75206861769B
:1037D00065206164646974696F6E616C20737465DF
:1037E000656C207368656574732C2063616C696215
:1037F00072617465207468656972207072657365A2
:10380000747320696E2053657474696E6773202D1C
:10381000204857205365747570202D2053746565BA
:103820006C207368656574732E00506C65617365F8
:1038300020636C65616E20686561746265642061F7
:103840006E64207468656E2070726573732074688E
:1038500065206B6E6F622E00446F20796F75207744
:10386000616E7420746F20726570656174206C6184
:103870007374207374657020746F20726561646A5C
:103880007573742064697374616E63652062657416
:103890007765656E206E6F7A7A6C6520616E642044
:1038A000686561746265643F0053656C656374208C
:1038B0006E6F7A7A6C6520707265686561742074C9
:1038C000656D70657261747572652077686963688B
:1038D000206D61746368657320796F7572206D6106
:1038E00074657269616C2E0049732066696C616D44
:1038F000656E74206C6F616465643F004E6F772065
:10390000492077696C6C2070726568656174206EFF
:103910006F7A7A6C6520666F7220504C412E004998
:103920002077696C6C2072756E207A2063616C69F7
:1039300062726174696F6E206E6F772E004E6F77C2
:103940002072656D6F766520746865207465737488
:10395000207072696E742066726F6D207374656575
:103960006C2073686565742E00506C65617365200A
:1039700072656D6F7665207368697070696E672017
:1039800068656C706572732066697273742E004985
:103990002077696C6C2072756E2078797A2063616B
:1039A0006C6962726174696F6E206E6F772E204948
:1039B000742077696C6C2074616B65206170707223
:1039C0006F782E203132206D696E732E0046697239
:1039D00073742C20492077696C6C2072756E20748A
:1039E00068652073656C667465737420746F2063FA
:1039F0006865636B206D6F737420636F6D6D6F6EA0
:103A000020617373656D626C792070726F626C6592
:103A10006D732E0048692C204920616D20796F75E7
:103A200072204F726967696E616C205072757361A4
:103A3000206933207072696E7465722E20576F751D
:103A40006C6420796F75206C696B65206D652074DE
:103A50006F20677569646520796F75207468726F6F
:103A6000756768207468652073657475702070725E
:103A70006F636573733F0048692C204920616D2096
:103A8000796F7572204F726967696E616C20507230
:103A9000757361206933207072696E7465722E20AF
:103AA000492077696C6C20677569646520796F754A
:103AB000207468726F75676820612073686F727414
:103AC0002073657475702070726F636573732C203A
:103AD000696E20776869636820746865205A2D6173
:103AE0007869732077696C6C2062652063616C690A
:103AF0006272617465642E205468656E2C20796F43
:103B0000752077696C6C206265207265616479202C
:103B1000746F207072696E742E0057697A617264D6
:103B200020656E642073746174653A2025640A0010
:103B3000773235783230636C5F63666D0A007732B6
:103B400035783230636C5F656E7465720A00737429
:103B50006172740A0020746F6F206C6F6E6720654D
:103B60007874727573696F6E2070726576656E74A5
:103B700065640020636F6C64206578747275736986
:103B80006F6E2070726576656E7465640078797A00
:103B900063616C5F73706972616C322063783D257C
:103BA000642063793D2564207A303D256420647A61
:103BB0003D2564207261646975733D2564206164EC
:103BC0003D25640A005061747465726E2063656EF1
:103BD000746572205B25662025665D2C206D6174FE
:103BE000636820256625250A00205B25662C202594
:103BF000665D5B25665D2066696E616C2063697237
:103C0000636C650A00746D63323133305F676F74C3
:103C10006F5F7374657020256420256420256420FF
:103C20002564200A004E6F20307846462072656376
:103C300065697665640053656E64696E67203078E7
:103C400046460053442063617264206F6B006F70BE
:103C5000656E526F6F74206661696C656400766F83
:103C60006C756D652E696E6974206661696C65643A
:103C700000534420696E6974206661696C00536F5B
:103C80007274696E672066696C657300536F6D6549
:103C90002066696C65732077696C6C206E6F742088
:103CA000626520736F727465642E204D61782E20DA
:103CB0004E6F2E206F662066696C657320696E20DA
:103CC0003120666F6C64657220666F7220736F724C
:103CD00074696E67206973203130302E0050494E70
:103CE000444100416D6269656E7400566F6C746189
:103CF0006765730054656D70657261747572657384
:103D00000042656C74207374617475730053656E42
:103D1000736F7220696E666F0045787472756465A2
:103D20007220696E666F0058595A2063616C2E20AC
:103D300064657461696C7300756E6B6E6F776E008D
:103D40004D4D553220636F6E6E656374656400443B
:103D50006174653A00686F77746F2E707275736165
:103D600033642E636F6D00666F72756D2E707275A1
:103D7000736133642E636F6D0070727573613364A9
:103D80002E636F6D00746F20756E6C6F61642066BA
:103D9000696C616D656E7400746F206C6F61642076
:103DA00066696C616D656E74005072657373207422
:103DB0006865206B6E6F62003E43616E63656C00E8
:103DC00050726568656174696E6720746F206375F1
:103DD000740050726568656174696E6720746F2045
:103DE000656A6563740050726568656174696E67C1
:103DF00020746F20756E6C6F616400507265686529
:103E00006174696E6720746F206C6F616400436F2A
:103E10006F6C646F776E00507265686561742074B2
:103E20006865206E6F7A7A6C6521004552524F5258
:103E30003A0046696C616D656E74206578747275C0
:103E400064696E672026207769746820636F7272D8
:103E500065637420636F6C6F723F004175746F6CA3
:103E60006F6164696E672066696C616D656E742050
:103E70006973206163746976652C206A7573742098
:103E8000707265737320746865206B6E6F62206159
:103E90006E6420696E736572742066696C616D650D
:103EA0006E742E2E2E005072696E742074696D65CA
:103EB0000046696C616D656E7420757365640054AD
:103EC0006F74616C207072696E742074696D650026
:103ED000546F74616C2066696C616D656E7400521C
:103EE00069676874004C656674005920646973746E
:103EF000616E63652066726F6D206D696E0053653B
:103F00007665726520736B65773A00536C696768F4
:103F10007420736B65773A004D65617375726564E3
:103F200020736B6577005B303B305D20706F696E8E
:103F300074206F6666736574000A204952203A2027
:103F400020202020202025332E3166560020505777
:103F5000523A20202020202025342E3166560A2077
:103F60004245443A20202020202025342E31665618
:103F70000025530A20582025640A20592025640072
:103F800025752E25752E25752E2575002573002087
:103F9000005072696E7465722049502041646472E9
:103FA0003A002573002000466C61736841697220F5
:103FB000495020416464723A004D4D553220202012
:103FC000202020204E2F410025642E25642E2564BC
:103FD0002D2564002046573A0046696C2E207365F3
:103FE0006E736F7220762E3A004A756C203235203F
:103FF0003230323100453344763666756C6C00459C
:10400000494E53795F31306100315F37356D6D5FF7
:104010004D4B33002D2D2D2D2D2D2D2D2D2D2D2DB9
:1040200000207265706F20556E6B6E6F776E00208A
:10403000332E31302E302D5243312D34303738006D
:104040004669726D776172653A004D373032004DC6
:10405000373031004D373032004D37303100464C6B
:104060004558202D20203234302F3530005050203C
:1040700020202D20203235342F3130300048495057
:1040800053202D20203232302F3130300041425326
:1040900020202D20203235352F313030005056422F
:1040A00020202D20203231352F373500504320205D
:1040B000202D20203237352F31313000415341201F
:1040C000202D20203236302F3130350050455420FD
:1040D000202D20203233302F383500504C41202005
:1040E0002D20203231352F3630006E6F7A7A6C6594
:1040F000202D20203235302F30006661726D202057
:10410000202D20203235302F383000252D31322E11
:10411000313253252B382E31660045787472756420
:1041200065723A006D6D0059005800583A002553E9
:104130003A0A2531382E32666D200A25533A0A256F
:1041400031306C6468202530326868646D20253019
:1041500032686864730025533A0A2531382E326676
:104160006D200A25533A0A2531306C6464202530CD
:104170003268686468202530326868646D002536CE
:104180002E32666D6D0025533A0A25530A25533A9F
:104190000A25533A0025332E3266010025533A0A88
:1041A00025530A252D31352E31355325332E3266D0
:1041B000010A252D31352E31355325332E32660136
:1041C00000252D32302E3230530A00457872656D4D
:1041D00065207370616E206F6620746865205A20B8
:1041E00076616C75657321006F6B0A007374617280
:1041F000740A004D4D5532206669726D77617265A3
:104200002076657273696F6E20696E76616C696481
:104210002E205265717569726564207665727369C6
:104220006F6E3A206275696C64206E756D6265729E
:10423000202564206F72206869676865722E004DC2
:104240004D55203D3E20276F6B270A004D4D5520D0
:104250003D3E20276F6B270A002564004D4D5520F9
:104260003D3E20276F6B272C20726573756D65208E
:104270007072696E740A004D4D55207265747279C2
:1042800020617474656D7074206E722E2025640A2E
:10429000004D4D55203D3E20276F6B270A00410AF7
:1042A000004D4D55203C3D202741270A004D36301A
:1042B00030004D363030204155544F002568687528
:1042C00000410A004D4D55203C3D202741270A0062
:1042D00050300A004D25640A004D4D55203C3D20CC
:1042E000274D2564270A0057300A004D4D55203CC4
:1042F0003D20275730270A0053330A004D4D5520E3
:104300003C3D20275333270A0052300A004D4D55BB
:10431000203C3D20275230270A004B25640A004DDF
:104320004D55203C3D20274B2564270A0045256438
:104330000A004D4D55203C3D2027452564270A00A5
:1043400055300A004D4D55203C3D20275530270A59
:104350000043300A004D4D55203C3D202743302777
:104360000A004C25640A004D4D55203C3D20274C49
:104370002564270A005425640A004D4D55203C3D14
:104380002027542564270A004D4D55202D20454EE9
:1043900041424C454400256868750050300A004D84
:1043A000310A004D4D55203C3D20274D312700500E
:1043B000300A004D4D552076657273696F6E207618
:1043C000616C6964004D4D55203D3E202725646F8A
:1043D0006B270A0025750053320A004D4D55203CCD
:1043E0003D2027533227004D4D55203D3E202725A7
:1043F000646F6B270A002575004D4D55206E6F7454
:1044000020726573706F6E64696E67202D20444959
:104410005341424C45440053310A004D4D55203C18
:104420003D2027533127004D4D55203D3E20277319
:10443000746172742700426564206C6576656C69EE
:104440006E67206661696C65642E2053656E736FBC
:1044500072206469646E7420747269676765722E75
:1044600020446562726973206F6E206E6F7A7A6C79
:10447000653F2057616974696E6720666F722072AC
:10448000657365742E00506C65617365207570648A
:10449000617465206669726D7761726520696E204E
:1044A000796F7572204D4D55322E205761697469B0
:1044B0006E6720666F722072657365742E00726578
:1044C00073756C742076616C75653A2025640A00FA
:1044D00020693D25326420636E743D253264207668
:1044E000616C3D2532640A00636C75737465727388
:1044F0003A0020693D25326420737465703D253291
:10450000640A00736F727465642073616D706C650A
:10451000733A005553415254322072782046756CDC
:104520006C21212100252D3773003A200025642FAE
:104530003600252D32305300203A2000252D323010
:10454000730025632533642F25642563005A2536BF
:104550002E32662563005A2020202D2D2D20002587
:10456000632533642525002D2D2D002533686864CF
:104570000025335325337325250055534200202051
:104580002000205344002025753E257500203F3E25
:10459000257500204625750020463F002046524DD7
:1045A000200025632D2D3A2D2D2020002563253355
:1045B00075682025632563002563253032753A250B
:1045C0003032752563256300526573756D696E67BA
:1045D000207072696E740050494E444120486561F4
:1045E00074696E670043616C6962726174696F6EB1
:1045F00020646F6E650043616C6962726174696EFC
:1046000067205A0042656420646F6E6500426564ED
:104610002048656174696E670048656174696E67FA
:1046200020646F6E652E0048656174696E670025B1
:104630007500593A202575202D3E202E2E2E00255E
:104640007500583A202575202D3E202E2E2E004D27
:10465000656173757265642066696C616D656E7401
:104660002073656E736F72206C6F77206C65766552
:104670006C3A2025342E3266560A004D65617375FA
:104680007265642066696C616D656E742073656E19
:10469000736F722068696768206C6576656C3A2074
:1046A00025342E3266560A00457874722066616E93
:1046B0002073706565643A2025640A005072696E43
:1046C000742066616E2073706565643A2025640A03
:1046D000005465737420323A004578747220666124
:1046E0006E2073706565643A2025640A0050726913
:1046F0006E742066616E2073706565643A2025646F
:104700000A005465737420313A004D383400256333
:104710002041584953205347313D25640A00486FD2
:1047200074656E6400426564005A00590058002D9B
:104730002D2D2D2D2D2D2D2D2D2D2D2D2D2D2D2DA9
:104740002D2D2D004F4B00496E73657274207468D7
:10475000652066696C616D656E742028646F206EDB
:104760006F74206C6F61642069742920696E746FA6
:104770002074686520657874727564657220616E56
:1047800064207468656E2070726573732074686548
:10479000206B6E6F622E0056657269666963617484
:1047A000696F6E206661696C65642C2072656D6F3F
:1047B0007665207468652066696C616D656E74202D
:1047C000616E642074727920616761696E2E005396
:1047D000656E736F722076657269666965642C20F8
:1047E00072656D6F7665207468652066696C616DB1
:1047F000656E74206E6F772E00506C656173652056
:10480000636865636B207468652049522073656E28
:10481000736F7220636F6E6E656374696F6E2C20A8
:10482000756E6C6F61642066696C616D656E742075
:1048300069662070726573656E742E00506C6561D8
:10484000736520756E6C6F6164207468652066699D
:104850006C616D656E742066697273742C20746867
:10486000656E20726570656174207468697320617B
:104870006374696F6E2E0057616974696E67206694
:104880006F72206E6F7A7A6C6520616E642062654B
:104890006420636F6F6C696E670053656C6620748B
:1048A000657374204F4B0053656C66207465737498
:1048B0002073746172742020005072696E742066D7
:1048C000616E3A0045787472756465722066616E37
:1048D0003A0043616C6962726174696E6720686F47
:1048E0006D6500416C6C20636F727265637420208B
:1048F0002020202000436865636B696E6720736524
:104900006E736F72732000436865636B696E672016
:10491000686F74656E64202000436865636B696E20
:104920006720626564202020202000436865636B57
:10493000696E67205A206178697300436865636B0C
:10494000696E672059206178697300436865636BFD
:10495000696E672058206178697300436865636BEE
:10496000696E6720656E6473746F70730041786957
:1049700073206C656E67746820646966666572652D
:104980006E63653A252E33660A004D656173757254
:1049900065642061786973206C656E6774683A2578
:1049A0002E33660A004C434420737461747573207F
:1049B0006368616E6765640047312059252D2E328A
:1049C000662045252D2E336600473120582564206A
:1049D00059252D2E32662045252D2E33660066730F
:1049E000656E736F725F636865636B706F696E7419
:1049F0005F7072696E74006673656E736F72207695
:104A0000302E3420696E206661756C742072616E80
:104A1000676520342E362D3556202D20756E636F38
:104A20006E6E6563746564006673656E736F722085
:104A3000696E20666F7262696464656E2072616E71
:104A4000676520312E352D3356202D206368656330
:104A50006B2073656E736F7200312E3000312E350E
:104A600000554E4B4E4F574E004C413130433A208B
:104A70004C696E65617220416476616E6365206D7C
:104A80006F64653A20004C413130433A2041646AFA
:104A9000757374656420452D4A65726B3A20000079
:104AA0000E1315110E00000004120912040000007C
:104AB0001C1F11111F00000006191803130C00041D
:104AC0000E1F041C000000040A0A0A0A11110E003D
:104AD0001F1511151F0000000103161C080000001F
:104AE00000110A04110A040C12120C000000002527
:104AF00063252D31382E3138532563005B25735DD6
:104B00002563005B25535D2563002563252D313822
:104B10002E31385300252E31305320002563252DAA
:104B200031382E3138732563002563252D2E31361B
:104B30005320002563252E3135533A2573253364E0
:104B400000756E6B6E6F776E2073746174650020F4
:104B5000302E34206F72206E657765720020302E03
:104B600033206F72206F6C646572004272696768EF
:104B7000746E657373004173736973740053696C69
:104B8000656E74004F6E6365004C6F756400536F03
:104B9000756E64004D4D55204D6F64650043726124
:104BA0007368206465742E00537465616C746800CA
:104BB0004E6F726D616C0046616E73206368656351
:104BC0006B00506175736500436F6E742E00465321
:104BD00020416374696F6E0046696C2E2073656EA8
:104BE000736F72004368616E67652066696C616D02
:104BF000656E7400466C6F77005370656564004E97
:104C00002F41004D61676E65747320636F6D702E68
:104C1000005A2D70726F6265206E722E004D6573A2
:104C2000680054696D656F757400427269676874D5
:104C3000004D6F6465004175746F0044696D004CF0
:104C40006576656C2044696D6D6564004C657665BC
:104C50006C204272696768740046616E20737065EB
:104C6000656400426564004E6F7A7A6C6500536536
:104C70007474696E6773005072696E742061626F3C
:104C8000727465640053746F70207072696E740082
:104C9000436865636B696E672066696C6500466989
:104CA0006C6520696E636F6D706C6574652E204352
:104CB0006F6E74696E756520616E797761793F00FA
:104CC0000452656672657368004D61696E002F2F2E
:104CD00020616374696F6E3A63616E63656C004D49
:104CE000203834004D3834004D3234004D323320FA
:104CF000257300052E2E0030010000340105003818
:104D0000010A003E010F0044011400500119005C2B
:104D100001230060012800700132007C013C00800A
:104D20000141008101460090014B0098015500A00F
:104D3000015A00AF016400B0016900B6016E00C005
:104D4000017300D0017D00D4018700E0018C0038A0
:104D5000029600F0019B000002A5000302AF0010C4
:104D600002B4001A02BE002002C3003002CD003897
:104D700002D7004002DC004C02E6005002EB005C6F
:104D800002F5006002FA006202FF00700204018076
:104D900002130184021D019002220194022C01A041
:104DA000023101B0023B01B4024501C0024A01C315
:104DB000025401D0025901D4026301E0026801EA01
:104DC000027201F0027701F4028101000386010CF6
:104DD0000390011003950145787472756465722023
:104DE00066616E207370656564206973206C6F77EF
:104DF0006572207468616E2065787065637465649F
:104E0000005072696E742066616E2073706565640F
:104E1000206973206C6F776572207468616E2065FD
:104E200078706563746564004D494E54454D50205B
:104E3000414D42004D415854454D50004D4158544C
:104E4000454D5020424544004D415854454D502059
:104E5000414D4200202D20496E76616C69642065C9
:104E600078747275646572206E756D62657220214A
:104E70000070012C0190012701B0012201C0011D29
:104E800001F00118011002130130020E0160020945
:104E90000190020401C002FF000003FA004003F584
:104EA000008003F000D003EB002004E6007004E172
:104EB00000E004DC004005D700C005D2004006CD6C
:104EC00000D006C8008007C3003008BE00F008B953
:104ED00000C009B400B00AAF00B00BAA00D00CA506
:104EE00000000EA000500F9B00C0109600501291C1
:104EF0000000148C00C0158700B0178200B0197D27
:104F000000D01B7800001E730040206E00902269C4
:104F100000F024640040275F0090295A00E02B55E0
:104F200000102E500020304B0010324600E033417C
:104F30000090353C001037370070383200A0392D12
:104F400000B03A2800A03B2300603C1E00103D1931
:104F500000903D1400103E0F00703E0A00C03E0558
:104F600000003F000090137D00B0157800F017732B
:104F700000601A6E00F01C6900A01F640050225FE0
:104F80000020255A00E0275500902A5000202D4B84
:104F900000A02F4600F031410010343C00F03537BE
:104FA00000A037320020392D00603A2800703B23E2
:104FB00000603C1E00203D1900C03D1400403E0F23
:104FC00000A03E0A00F03E0500403F0000703FFB9D
:104FD000FF903FF6FFB03FF1FFC03FECFFD03FE74F
:104FE000FFE03FE2FFF03FDDFFF03FD8FF20484FFA
:104FF00054454E4420544845524D414C2052554E44
:1050000041574159002048454154424544205448A5
:1050100045524D414C2052554E415741590054483C
:1050200045524D414C2052554E4157415900424541
:105030004420544845524D414C2052554E41574111
:10504000590020544845524D414C2052554E41572D
:1050500041592028205052454845415420484F543A
:10506000454E44290020544845524D414C2052554C
:105070004E4157415920282050524548454154201F
:105080004845415442454429005052454845415401
:10509000204552524F520042454420505245484507
:1050A0004154204552524F52004572723A2000201E
:1050B000747269676765726564210048656174652B
:1050C0007273207377697463686564206F66662EF7
:1050D00020003A2000506C6561736520726573741E
:1050E000617274004D494E54454D50004D494E5427
:1050F000454D502042454400746D63323133305F7A
:10510000686F6D655F656E74657228617865735F41
:105110006D61736B3D307825303278290A00746DEB
:1051200063323133305F686F6D655F657869742015
:10513000746D63323133305F73675F686F6D696EB2
:10514000675F617865735F6D61736B3D30782530A3
:1051500032780A00544D4320445249564552204F5C
:1051600056455254454D50000000000000110A04FD
:1051700050525553413344465700534420636172A3
:10518000642072656C656173656400414C544641EE
:105190004E206465742E004572726F72202D20734C
:1051A0007461746963206D656D6F727920686173D5
:1051B000206265656E206F766572777269747465BA
:1051C0006E00436172642072656D6F766564004F96
:1051D0006E004F6666004261636B005072696E74C8
:1051E0006572206E6F7A7A6C65206469616D657492
:1051F000657220646966666572732066726F6D20E1
:1052000074686520472D636F64652E20506C65615E
:10521000736520636865636B207468652076616CD4
:10522000756520696E2073657474696E67732E20CE
:105230005072696E742063616E63656C6C65642E78
:10524000005072696E746572206E6F7A7A6C652098
:105250006469616D65746572206469666665727300
:105260002066726F6D2074686520472D636F6465DA
:105270002E20436F6E74696E75653F00000021003B
:10528000240027002A002D00300033000101000017
:10529000040107010A0100002200250028002B005C
:1052A0002E003100340002010000050108010B014D
:1052B000000020002300260029002C002F003200CF
:1052C00000010000030106010901050505050705A8
:1052D00008080808020202020A0A08080404040472
:1052E000010101010101010103030303030303039E
:1052F000040707070C0C0C0C0C0C0C0C020202022D
:1053000006060606060606060B0B0B0B0B0B0B0B15
:1053100007070A0A0A0A0A0A050505040404080818
:1053200001021020200808102040102040800201B7
:10533000020108040201010204081020408080409C
:10534000201008040201800402018040201008049B
:105350000201080402010102040810204080010239
:1053600004081020408010080408801020400440E9
:1053700080102040048000000A0B02090C0D0E086A
:10538000070304010000000000000000000000000E
:10539000000000000000000000000000000000000D
:1053A00000001211100000000000000000000000CA
:1053B00000000000000000000000000000000000ED
:1053C000000000000000000000000000252D392E24
:1053D00039535B002563252D31382E313873256311
:1053E0000057726974696E6720746F2066696C6516
:1053F0003A200046696C6520616C726561647920B1
:105400006F70656E656400332E31302E302D52433F
:1054100031007263006265746100616C70686100E4
:10542000646576005368656574004E6F0059657356
:10543000004E6F74207370696E6E696E67005370F2
:10544000696E6E696E670046616E207465737400E4
:1054500053656C6674657374206661696C6564205D
:1054600020002573206C6576656C20657870656317
:105470007465640046616C73652074726967676562
:1054800072696E670046696C616D656E7420736544
:105490006E736F7200537761707065640046726F4F
:1054A0006E742F6C6566742066616E730041786956
:1054B000730041786973206C656E677468004C6F87
:1054C0006F73652070756C6C6579004C656674202F
:1054D000686F74656E642066616E3F0046726F6E21
:1054E00074207072696E742066616E3F00456E6450
:1054F00073746F70206E6F742068697400456E64F9
:1055000073746F70004D6F746F7200456E647374C6
:105510006F707300576972696E67206572726F727F
:1055200000426564202F20486561746572004E6FEB
:105530007420636F6E6E65637465640048656174A2
:1055400065722F546865726D6973746F7200506C68
:105550006561736520636865636B203A0053656C11
:105560006674657374206572726F722021005465D1
:105570006D702E2063616C6962726174696F6E0078
:1055800052657365742058595A2063616C69627260
:105590002E005049442063616C6962726174696FC6
:1055A0006E00426564206C6576656C20636F727274
:1055B000656374004D65736820426564204C6576B0
:1055C000656C696E670043616C6962726174652025
:1055D0005A0043616C6962726174652058595A00BF
:1055E00053656C6674657374202020202020202071
:1055F000200042656C742074657374202020202084
:105600002020200057697A617264004C6F61642029
:10561000616C6C00506C656173652070756C6C20FA
:105620006F75742066696C616D656E7420696D6D4F
:105630006564696174656C7900556E6C6F6164694D
:105640006E672066696C616D656E74005265736586
:10565000740052656E616D65004669727374206CEA
:10566000617965722063616C2E0053656C656374AB
:1056700000537465656C20736865657473005375B9
:1056800070706F7274004661696C2073746174731A
:10569000204D4D55004661696C2073746174730030
:1056A0005374617469737469637320200043616C7F
:1056B0006962726174696F6E004175746F4C6F61DD
:1056C000642066696C616D656E7400437574206654
:1056D000696C616D656E7400456A65637420666906
:1056E0006C616D656E7400556E6C6F6164206669E7
:1056F0006C616D656E74004C6F616420746F206E18
:105700006F7A7A6C65004C6F61642066696C616DBC
:10571000656E74004E6F20534420636172640050C4
:1057200072696E742066726F6D2053440052657307
:10573000756D65207072696E7400506175736520B7
:105740007072696E7400507265686561740054759A
:105750006E65004C6976652061646A757374205AC1
:1057600000496E666F2073637265656E0046696EF0
:10577000697368696E67206D6F76656D656E7473A9
:10578000004D343400473238205700200A200A20C8
:10579000004739390044697361626C652066617243
:1057A0006D206D6F64653F004D363030004572727C
:1057B0003A205052494E542046414E204552524FB5
:1057C00052004572723A20455854522E2046414E9E
:1057D000204552524F52002F2F20616374696F6E23
:1057E0003A706175736564002F2F20616374696F6F
:1057F0006E3A726573756D6564002F2F2061637456
:10580000696F6E3A726573756D65006572726F725D
:105810003A20756E6B6E6F776E206D6F7665006ED9
:105820006F206D6F766500542D636F646500756E33
:105830006C6F6164006C6F6164006D6D755F6765AE
:10584000745F726573706F6E7365202D206265677B
:10585000696E206D6F76653A20006D6D755F6765C6
:10586000745F726573706F6E73652829207265743A
:1058700075726E696E673A2025640A00556E6C6F0A
:105880006164696E672066696E6973686564203259
:1058900000556E6C6F6164203200556E6C6F6164F0
:1058A000696E672066696E697368656420310055AA
:1058B0006E6C6F61642031004D4D552073746172C0
:1058C000747320726573706F6E64696E67004D4DFE
:1058D00055206E6F7420726573706F6E64696E67A9
:1058E0000046696C616D656E74206F7574206F661B
:1058F0002072616E6765202564200A000000803FE9
:10590000555585410000803F0000C841000000401F
:10591000555505420000C03F0000484200002040AD
:1059200055558542000070C1ABAAA642000060C177
:105930000000A0410000C0C0000020410000204144
:10594000ABAA3A41000020C15555D540000048C2DD
:10595000555505424D373031204534004D373031F3
:10596000204533004D373031204532004D3730313E
:10597000204531004D3730312045300046696C619B
:105980006D656E74206E72206F7574206F66207264
:10599000616E67652100206661696C65642E002078
:1059A0007375636365656465642E004D4D552063B2
:1059B000616E5F6C6F61643A004164646974696F21
:1059C0006E616C206C6F616420617474656D7074BD
:1059D000206E722E2025640A004D4D55204F4B2E0F
:1059E00020526573756D696E672E2E2E004D4D55D4
:1059F000204F4B2E20526573756D696E6720706F56
:105A0000736974696F6E2E2E2E004D4D55204F4BCD
:105A10002E20526573756D696E672074656D7065B3
:105A20007261747572652E2E2E0046697820746836
:105A30006520697373756520616E64207468656E96
:105A400020707265737320627574746F6E206F6E50
:105A5000204D4D5520756E69742E0050726573731C
:105A600020746865206B6E6F6220746F207265739E
:105A7000756D65206E6F7A7A6C652074656D7065E2
:105A80007261747572652E004D4D55206E656564AA
:105A900073207573657220617474656E74696F6EBE
:105AA0002E0043757474696E672066696C616D655C
:105AB0006E7400506C656173652072656D6F7665FC
:105AC0002066696C616D656E7420616E6420746817
:105AD000656E20707265737320746865206B6E6FDD
