:100000000C942B1D0C945C1D0C945C1D0C945C1DBD
:100010000C945C1D0C9478740C945C1D0D94D0258C
:100020000C9403740C945C1D0C945C1D0C945C1D6E
:100030000C945C1D0C945C1D0C9428900C94DE8F29
:100040000C945C1D0D94DE260C945C1D0C945C1DC0
:100050000C945C1D0C945C1D0C945C1D0C942CACDD
:100060000C945C1D0D94B0630C945C1D0C945C1D91
:100070000C945C1D0C945C1D0C945C1D0C945C1D1C
:100080000C945C1D0C945C1D0C945C1D0C945C1D0C
:100090000D946C630C945C1D0C945C1D0C945C1DA5
:1000A0000C945C1D0C945C1D0D9462470C945C1DBB
:1000B0000C945C1D0D9444470C945C1D0C945C1DC9
:1000C0000C945C1D0C945C1D0C945C1D0D94B74647
:1000D0000C945C1D0C945C1D0C945C1D0C945C1DBC
:1000E0000C945C1D4AA353A3F6A2C5A295A241A6F7
:1000F0008EA3ADA443A599A5B5A5ECA548AC56AC77
:1001000064AC71AC83AC8AACACACC2AC73AD75AD55
:1001100073AD75AD73AD75AD77AD79AD53C453C4E3
:1001200056C453C456C464C467C4CAD4EAD4FCD405
:100130000BD517D552D5B4D46AD57ED57AD5B4D4DB
:1001400080D58CD592D5AAD570D7A8D978D96DD9B4
:1001500062D957D94CD9CCD9BCD925D9F7D8C5D86B
:1001600003DFAADE03DF06DF77DFA8DF03DF03DFBD
:10017000CADF78E07BE06AE06EE074E0B2E07FE046
:1001800083E089E08DE091E097E09BE09FE0B2E0C2
:10019000A5E0A9E0ADE036E242E255E26AE28AE299
:1001A0008DE290E29CE2A8E2B4E2CEE2D1E2DDE2AE
:1001B0000CE711E716E720E72AE7A3E734E73CE777
:1001C00044E74EE758E762E771E77BE7A3E785E797
:1001D0008FE799E7084AD73B3BCE016E84BCBFFD51
:1001E000C12F3D6C74319ABD56833DDA3D00C77F07
:1001F00011BED9E4BB4C3E916BAAAABE00000080A0
:100200003F05A84CCDB2D44EB93836A9020C50B92E
:10021000918688083CA6AAAA2ABE000000803F0753
:10022000634236B79BD8A71A39685618AEBAAB5591
:100230008C1D3CB7CC5763BD6DEDFD753EF6177256
:1002400031BF000000803F08000000BE9224491228
:100250003EABAAAA2ABECDCCCC4C3E00000080BE4C
:10026000ABAAAAAA3E00000000BF000000803F0029
:1002700000000000084178D3BB4387D1133D190E1D
:100280003CC3BD4282AD2B3E68EC8276BED98FE185
:10029000A93E4C80EFFFBE01C4FF7F3F000000007D
:1002A00000000D94C69B0D94381A0D94690E0D94A0
:1002B00042150D94FC6F0D94CF230D94AC0B0D944F
:1002C000610F0D94625C0D944D150D9497140D946F
:1002D0008F570D94675C0D94805C0D94870E0D9480
:1002E000CF240D941A0D0D94BE1B0D9410700D9417
:1002F0005D5C0D940B970D94845C0D94765C0D946D
:10030000D4580D9420150D94E45B0D94A26E0D94B9
:1003100010190D94715C0D94DB5B0D9411140D9408
:10032000EB450D94E0160D949A570D94B06E0D9414
:1003300066580D94390B0D9408190D9443580D947B
:100340009A580D9416580D94D8570D94DF5B0D9460
:100350002D150D9440590D94841B0D943C250D943E
:10036000730E0D94C80B0D947D0E0D9404460D94E0
:10037000D55B0D947B5C0D9481130D9408640D94F2
:10038000F4160D9420140D94B8130D944D0C0D9487
:1003900063590D940A590D94661B0D942A700D949F
:1003A0006C5C0D94385A0D94C6136E616E00696EC4
:1003B00066004E414E494E495459494E46CDCCCC2B
:1003C0003D0AD7233C17B7D13877CC2B329595E629
:1003D000241FB14F0A000020410000C84200401C09
:1003E0004620BCBE4CCA1B0E5AAEC59D7400407A56
:1003F00010F35A00A0724E18090010A5D4E80000AE
:10040000E87648170000E40B54020000CA9A3B004B
:100410000000E1F505000080969800000040420FC2
:10042000000000A08601000000102700000000E886
:1004300003000000006400000000000A000000004B
:10044000000100000000002C76D888DC674F0823EC
:10045000DFC1DFAE59E1B1B796E5E3E453C63AE652
:1004600051997696E8E6C28426EB898C9B62ED4032
:100470007C6FFCEFBC9C9F40F2BAA56FA5F4900581
:100480005A2AF75C936B6CF9676DC11BFCE0E40DB5
:1004900047FEF520E6B500D0ED902E0300943577A9
:1004A000050080841E080000204E0A000000C80CD1
:1004B000333333330F986E12831141EF8D2114893A
:1004C0003BE65516CFFEE6DB18D1844B381BF77C94
:1004D0001D901DA4BBE424203284725E228100C9D9
:1004E000F124ECA1E53D276364696E6F7073757844
:1004F000585B00416476616E6365204B3D004B2084
:100500006F7574206F6620616C6C6F776564207204
:10051000616E67652100200A200A20004D323230CA
:100520002053256900255346696C616D656E742002
:1005300073657474696E67733A2044697361626CA1
:1005400065640A00255346696C616D656E7420739D
:10055000657474696E67733A0A25532020204D3202
:1005600030302044252E32660A00255352657472BD
:100570006163743A20533D4C656E67746820286D42
:100580006D2920463A537065656420286D6D2F6D86
:1005900029205A3A205A4C69667420286D6D290A20
:1005A00025532020204D3230372053252E3266200F
:1005B00046252E3266205A252E32660A255352656C
:1005C000636F7665723A20533D4578747261206C92
:1005D000656E67746820286D6D2920463A537065F2
:1005E000656420286D6D2F6D290A25532020204D2C
:1005F0003230382053252E32662046252E32660AA8
:1006000025534175746F2D526574726163743A207D
:10061000533D3020746F2064697361626C652C20D7
:100620003120746F20696E74657270726574206514
:100630007874727564652D6F6E6C79206D6F766558
:1006400073206173207265747261637473206F72BA
:10065000207265636F7665726965730A2553202081
:10066000204D323039205325640A00255350494427
:1006700020686561746265642073657474696E676F
:10068000733A0A25532020204D3330342050252E34
:1006900032662049252E32662044252E32660A0015
:1006A00025535049442073657474696E67733A0A20
:1006B00025532020204D3330312050252E32662006
:1006C00049252E32662044252E32660A00255353D2
:1006D000746570732070657220756E69743A0A25AE
:1006E0005320204D39322058252E32662059252E90
:1006F0003266205A252E32662045252E32660A257E
:10070000535553746570207265736F6C7574696F9F
:100710006E3A200A2553204D333530205825642069
:10072000592564205A2564204525640A25534D61C6
:1007300078696D756D206665656472617465732096
:100740002D206E6F726D616C20286D6D2F73293AAC
:100750000A255320204D3230332058252E32662072
:1007600059252E3266205A252E32662045252E32F6
:10077000660A25534D6178696D756D2066656564FF
:100780007261746573202D20737465616C746820C8
:10079000286D6D2F73293A0A255320204D323033AE
:1007A0002058252E32662059252E3266205A252EB5
:1007B00032662045252E32660A25534D6178696DD3
:1007C000756D20616363656C65726174696F6E201D
:1007D0002D206E6F726D616C20286D6D2F73322924
:1007E0003A0A255320204D3230312058256C75208F
:1007F00059256C75205A256C752045256C750A2580
:10080000534D6178696D756D20616363656C6572C8
:100810006174696F6E202D20737465616C7468203B
:10082000286D6D2F7332293A0A255320204D32301E
:10083000312058256C752059256C75205A256C750A
:100840002045256C750A2553416363656C657261AB
:1008500074696F6E3A20503D7072696E742C20522C
:100860003D726574726163742C20543D74726176BC
:10087000656C0A255320204D3230342050252E320D
:10088000662052252E32662054252E32660A2553C4
:10089000416476616E636564207661726961626C41
:1008A00065733A20533D4D696E20666565647261DB
:1008B000746520286D6D2F73292C20543D4D696E71
:1008C0002074726176656C2066656564726174651A
:1008D00020286D6D2F73292C20423D6D696E696D46
:1008E000756D207365676D656E742074696D652024
:1008F000286D73292C20583D6D6178696D756D20C8
:100900005859206A65726B20286D6D2F73292C2031
:10091000205A3D6D6178696D756D205A206A657247
:100920006B20286D6D2F73292C2020453D6D61783B
:10093000696D756D2045206A65726B20286D6D2F7D
:1009400073290A255320204D3230352053252E326D
:10095000662054252E32662042252E3266205825E8
:100960002E32662059252E3266205A252E326620D8
:1009700045252E32660A2553486F6D65206F6666E1
:1009800073657420286D6D293A0A255320204D3255
:1009900030362058252E32662059252E3266205AB0
:1009A000252E32660A004625642025640A004D4D36
:1009B00055203C3D2027462564202564270A005009
:1009C0004944204175746F74756E652066696E695F
:1009D00073686564212050757420746865206C61AB
:1009E0007374204B702C204B6920616E64204B6423
:1009F00020636F6E7374616E74732066726F6D2006
:100A000061626F766520696E746F20436F6E6669F0
:100A10006775726174696F6E2E6800504944204199
:100A200075746F74756E65206661696C65642120EC
:100A300074696D656F75740020403A00543A004245
:100A40003A00504944204175746F74756E65206694
:100A500061696C6564212054656D7065726174759F
:100A6000726520746F6F206869676800204B643A74
:100A70002000204B693A2000204B703A2000204390
:100A80006C61737369632050494420002054753AA7
:100A90002000204B753A2000206D61783A2000201C
:100AA0006D696E3A200020643A200020626961730B
:100AB0003A20004361703A25533A25630A004155B4
:100AC000544F5245504F52545F504F534954494F21
:100AD0004E004155544F5245504F52545F46414E7F
:100AE00053004155544F5245504F52545F54454D59
:100AF0005000005A30005A31005930005931005826
:100B00003000583100456E642073746F7073206438
:100B10006961670044656C6574696F6E2066616920
:100B20006C65642C2046696C653A200046696C65EA
:100B30002064656C657465643A004E6F742053449C
:100B4000207072696E74696E67005072696E7420ED
:100B50007361766564005344207072696E7420700E
:100B60006175736564004F4B004241440052414D32
:100B7000426F2046414E200043524153485F43415B
:100B80004E43454C0043524153485F5245434F56F4
:100B900045520043524153485F5245434F564552D8
:100BA0000022283229004475706C696361746520E5
:100BB000542D636F64652069676E6F7265642E00E3
:100BC000496E76616C6964205420636F64652E0001
:100BD000556E6B6E6F776E204D20636F64653A20A3
:100BE0002573200A006E6F2076616C696420636F44
:100BF0006D6D616E64002C20002C20002C20006E96
:100C00002F61002C20002C20002C20006E2F610072
:100C1000503A005761697420666F722050494E4403
:100C200041207461726765742074656D70657261CE
:100C3000747572653A004155544F004C414E47203F
:100C400053454C20464F5243454400256925250A0B
:100C500000256925250A002228312900303030304E
:100C6000303030302D303030302D303030302D308D
:100C70003030302D30303030303030303030303077
:100C80000020555549443A003100204558545255EA
:100C90004445525F434F554E543A0042757A6120A5
:100CA0004D4B33485400204D414348494E455F5415
:100CB0005950453A00312E3000206261736564203E
:100CC0006F6E204D61726C696E204649524D5741DE
:100CD00052455F55524C3A68747470733A2F2F67BF
:100CE00069746875622E636F6D2F707275736133EE
:100CF000642F50727573612D4669726D77617265EC
:100D00002050524F544F434F4C5F56455253494F1A
:100D10004E3A004649524D574152455F4E414D456E
:100D20003A50727573612D4669726D7761726520F4
:100D3000004D31313320530020423A0020453A0023
:100D4000543A006F6B20006E2F61003F546F736840
:100D500069626120466C61736841697220476574FD
:100D60004950206661696C65640A002569206D69D7
:100D70006E2C2025692073656300496E76616C696D
:100D800064204D20636F64653A202573200A005566
:100D90006E6B6E6F776E204720636F64653A202517
:100DA00073200A004D65736820626564206C657667
:100DB000656C696E67206E6F742061637469766517
:100DC0002E002020000A4D656173757265642070E5
:100DD0006F696E74733A000A5A20736561726368B2
:100DE000206865696768743A20004E756D20582C3C
:100DF000593A2000206D6963726F6E730045786305
:100E000065737369766520626564206C6576656CD0
:100E1000696E6720636F7272656374696F6E3A20E2
:100E200000426564206C6576656C696E672066615A
:100E3000696C65642E2053656E736F7220747269DD
:100E400067676572656420746F6F20686967682ED4
:100E500000426564206C6576656C696E672066612A
:100E6000696C65642E2053656E736F7220646973BC
:100E7000636F6E6E6563746564206F722063616278
:100E80006C652062726F6B656E2E0050494E444156
:100E90002070726F62652063616C6962726174694F
:100EA0006F6E2073746172740047323820573000BF
:100EB0004E6F2050494E444120746865726D6973CD
:100EC000746F7200736574006E6F7A7A6C65004D92
:100ED000424C0046520042656174004C7A004C61FD
:100EE0006E67005265760046697200534E20696E47
:100EF00076616C696400534E004D323800524553A0
:100F00004554004D4D55524553004D3234007576D1
:100F10006C6F007468780046414E0046414E50495F
:100F20004E5453540050524E0050696E6700505258
:100F3000555341005345545F43484F505F0053455C
:100F4000545F535445505F005345545F57415645D5
:100F50005F00544D435F0043524153485F43414E4D
:100F600043454C0043524153485F5245434F564519
:100F7000520043524153485F44455445435445440D
:100F80000043524153485F004D3120004D30004D29
:100F9000313137004C616E6775616765207570642B
:100FA0006174652E003B53006164635F696E697410
:100FB000000A204F726967696E616C205072757308
:100FC000612069330A2020205072757361205265B8
:100FD00073656172636800200A200A200A200053AA
:100FE000657276696365207072657000416C6C2073
:100FF00044617461005368697070696E6720707233
:1010000065700053746174697374696373004C6133
:101010006E67756167650045524153494E472061CF
:101020006C6C206461746100466163746F72792036
:1010300052455345540044495341424C45440045B0
:101040004E41424C454400202873656E736F7220F8
:10105000626F617264207265766973696F6E3A259A
:1010600053290A004653656E736F72202553004959
:101070004E5434004D4B33534D4D553253004E4F6B
:101080004D4B3353002E014E4F4354554100414CBC
:101090005446414E004A756E20203820323032319D
:1010A00000436F6D70696C65643A2000286E6F6E46
:1010B000652C2064656661756C7420636F6E66696B
:1010C0006729004A756E20203820323032312031B5
:1010D000393A32363A33360020332E31302E302D25
:1010E0005243312D343037380073746172740053B9
:1010F0004E20757064617465206661696C6564007A
:10110000534E207570646174656400416E20657291
:10111000726F72207768696C652077726974696E86
:101120006720746F207468652053442043617264A3
:101130002E002055706C6F616420696E2070726F94
:10114000677265737300205A3A0020593A0020589C
:101150003A0043524153485F444554454354454443
:1011600058590043524153485F4445544543544500
:1011700044590043524153485F4445544543544504
:101180004458004D32390078797A63616C5F6D653F
:101190006173737572655F656E7465720A00787944
:1011A0007A63616C5F73706972616C382063783D3B
:1011B00025642063793D2564207A303D25642064D0
:1011C0007A3D2564207261646975733D25642061F0
:1011D000643D25640A0078797A63616C5F736561A8
:1011E0007263685A206E6F207369676E616C0A20A3
:1011F000783D256C6420793D256C64207A3D256C12
:10120000640A00204F4E2D5349474E414C206174D3
:1012100020783D256420793D2564207A3D25642091
:1012200061643D25640A0078797A63616C5F736557
:10123000617263685A20783D256C6420793D256C85
:1012400064207A3D256C640A0025640A00536361BA
:101250006E20636F756E74646F776E3A20000A00BB
:101260002530327800205B25662025665D206D6D77
:10127000207061747465726E2063656E7465720AA5
:1012800000205B25662025665D5B25665D206D6D13
:1012900020646976657267656E63650A000000F018
:1012A00000F801FC03FE07FE07FE07FE07FC03F83B
:1012B00001F000000000000000F000F801FC03FC59
:1012C00003FC03FC03F801F0000000000078797AC9
:1012D00063616C5F6D656173737572655F6C656189
:1012E00076650A00203C20005741524E494E473A4D
:1012F0002046726F6E7420706F696E74206E6F740A
:1013000020726561636861626C652E205920636F8D
:101310006F7264696E6174653A00000000404100BC
:1013200000C04000005C430000C04000005C43007F
:101330000046430000404100004643497465726125
:1013400074696F6E3A200043616C696272617469FE
:101350006F6E206661696C65642120436865636B0C
:1013600020746865206178657320616E64207275F1
:101370006E20616761696E2E0020573A0020453A61
:1013800000543A005A206C6976652061646A75736E
:1013900074206F7574206F662072616E67652E20F1
:1013A00053657474696E6720746F20302E20436C0F
:1013B00069636B20746F20636F6E74696E75652E40
:1013C000005A206C6976652061646A757374206FB9
:1013D0007574206F662072616E67652E2053657488
:1013E00074696E6720746F20300020423A002045F7
:1013F0003A00543A00494E5434007265636F766582
:10140000725F6D616368696E655F73746174655F57
:1014100061667465725F706F7765725F70616E6927
:10142000632C20696E697469616C200050525553B9
:10143000412075766C6F004734205330004D3236B2
:101440002053256C75004D3130362053004D32321B
:10145000302053256400473120462564004D383242
:10146000004739322045004731204525302E33666C
:10147000204632373030004D32303420502566203F
:1014800052256620542566004731205A25660050B3
:1014900052555341204D424C20563100473120587F
:1014A00025662059256620463330303000506F7352
:1014B0006974696F6E20726561642066726F6D2059
:1014C000656570726F6D3A004D3233202573002EC2
:1014D00067636F002C20666565646D756C74697058
:1014E0006C793A0046656564726174653A0047310B
:1014F0002045252D302E33662046323730300047C8
:10150000312045352046313230004D3833004D31E1
:10151000303920532564004D313930205325640083
:101520004D3130342053256400473238205820593B
:10153000004731205A252E33662046383030004788
:1015400031205A252D302E33662046252D302E335E
:10155000660047312045252D302E33662046323730
:101560003030004D383300312E3000312E350055EB
:101570004E4B4E4F574E004C413130433A204C6950
:101580006E65617220416476616E6365206D6F6483
:10159000653A20004C413130433A2041646A75730A
:1015A00074656420452D4A65726B3A2000000E1365
:1015B00015110E00000004120912040000001C1F87
:1015C00011111F00000006191803130C00040E1F50
:1015D000041C000000040A0A0A0A11110E001F155B
:1015E00011151F0000000103161C08000000001167
:1015F0000A04110A040C12120C00000000256325D5
:101600002D31382E3138532563005B25735D2563FA
:10161000005B25535D2563002563252D31382E3170
:10162000385300252E31305320002563252D3138C5
:101630002E3138732563002563252D2E3136532036
:10164000002563252E3135533A2573253364002553
:101650002D32302E3230530A00FFFFFFFF1000C939
:101660000210012C014001220170011801B0010E8D
:1016700001F00104015002FA00B002F0003003E66C
:1016800000D003DC009004D2007005C800A006BEA4
:10169000000008B400B009AA00D00BA000600E96AC
:1016A0000060118C000015820020197800C01D6EAA
:1016B00000A0226400B0275A00902C500000314650
:1016C00000E0343C0010383200903A2800603C1EA4
:1016D00000A03D1400803E0A00203F0000457874C1
:1016E00072756465722066616E2073706565642032
:1016F0006973206C6F776572207468616E206578FD
:10170000706563746564005072696E742066616E02
:10171000207370656564206973206C6F7765722033
:101720007468616E206578706563746564004D4906
:101730004E54454D5020414D42004D415854454D69
:1017400050004D415854454D5020424544004D41B4
:101750005854454D5020414D4200202D20496E7671
:10176000616C6964206578747275646572206E7549
:101770006D62657220210070012C0190012701B07B
:10178000012201C0011D01F00118011002130130F6
:10179000020E016002090190020401C002FF000074
:1017A00003FA004003F5008003F000D003EB0020B3
:1017B00004E6007004E100E004DC004005D700C04E
:1017C00005D2004006CD00D006C8008007C3003017
:1017D00008BE00F008B900C009B400B00AAF00B0FC
:1017E0000BAA00D00CA500000EA000500F9B00C05B
:1017F0001096005012910000148C00C0158700B0A4
:10180000178200B0197D00D01B7800001E730040C5
:10181000206E0090226900F024640040275F009051
:10182000295A00E02B5500102E500020304B00109C
:10183000324600E033410090353C001037370070ED
:10184000383200A0392D00B03A2800A03B230060B8
:101850003C1E00103D1900903D1400103E0F00701A
:101860003E0A00C03E0500003F000090137D00B01E
:10187000157800F0177300601A6E00F01C6900A064
:101880001F640050225F0020255A00E02755009079
:101890002A5000202D4B00A02F4600F031410010AF
:1018A000343C00F0353700A037320020392D00607D
:1018B0003A2800703B2300603C1E00203D1900C008
:1018C0003D1400403E0F00A03E0A00F03E050040DF
:1018D0003F0000703FFBFF903FF6FFB03FF1FFC0BD
:1018E0003FECFFD03FE7FFE03FE2FFF03FDDFFF0DE
:1018F0003FD8FF20484F54454E4420544845524D50
:10190000414C2052554E41574159002048454154C1
:1019100042454420544845524D414C2052554E4179
:1019200057415900544845524D414C2052554E4163
:101930005741590042454420544845524D414C209E
:1019400052554E415741590020544845524D414C43
:101950002052554E41574159202820505245484564
:10196000415420484F54454E442900205448455284
:101970004D414C2052554E4157415920282050523C
:10198000454845415420484541544245442900506A
:10199000524548454154204552524F520042454419
:1019A0002050524548454154204552524F5200451F
:1019B00072723A20002074726967676572656421EB
:1019C0000048656174657273207377697463686534
:1019D00064206F66662E20003A2000506C656173AB
:1019E000652072657374617274004D494E54454DA3
:1019F00050004D494E54454D5020424544004578D5
:101A000072656D65207370616E206F662074686505
:101A1000205A2076616C75657321006F6B0A007324
:101A2000746172740A004D4D5532206669726D778B
:101A30006172652076657273696F6E20696E76617A
:101A40006C69642E205265717569726564207665D3
:101A50007273696F6E3A206275696C64206E756D81
:101A6000626572202564206F7220686967686572FC
:101A70002E004D4D55203D3E20276F6B270A004D0F
:101A80004D55203D3E20276F6B270A002564004DF1
:101A90004D55203D3E20276F6B272C2072657375B6
:101AA0006D65207072696E740A004D4D5520726527
:101AB00074727920617474656D7074206E722E205A
:101AC00025640A004D4D55203D3E20276F6B270AA7
:101AD00000410A004D4D55203C3D202741270A007A
:101AE0004D363030004D363030204155544F0025B2
:101AF00068687500410A004D4D55203C3D20274146
:101B0000270A0050300A004D25640A004D4D55202B
:101B10003C3D20274D2564270A0057300A004D4DD3
:101B200055203C3D20275730270A0053330A004DEB
:101B30004D55203C3D20275333270A0052300A00E0
:101B40004D4D55203C3D20275230270A004B25643F
:101B50000A004D4D55203C3D20274B2564270A00A7
:101B60004525640A004D4D55203C3D202745256400
:101B7000270A0055300A004D4D55203C3D20275581
:101B800030270A0043300A004D4D55203C3D2027A8
:101B90004330270A004C25640A004D4D55203C3D3A
:101BA00020274C2564270A005425640A004D4D5512
:101BB000203C3D2027542564270A004D4D55202DFB
:101BC00020454E41424C4544002568687500503020
:101BD0000A004D310A004D4D55203C3D20274D3126
:101BE000270050300A004D4D552076657273696F9D
:101BF0006E2076616C6964004D4D55203D3E202776
:101C000025646F6B270A0025750053320A004D4D7D
:101C100055203C3D2027533227004D4D55203D3E59
:101C2000202725646F6B270A002575004D4D552030
:101C30006E6F7420726573706F6E64696E67202DAD
:101C40002044495341424C45440053310A004D4D14
:101C500055203C3D2027533127004D4D55203D3E1A
:101C60002027737461727427006572726F723A2054
:101C7000756E6B6E6F776E206D6F7665006E6F2080
:101C80006D6F766500542D636F646500756E6C6FC3
:101C90006164006C6F6164006D6D755F6765745F92
:101CA000726573706F6E7365202D20626567696E53
:101CB000206D6F76653A20006D6D755F6765745FA6
:101CC000726573706F6E7365282920726574757202
:101CD0006E696E673A2025640A00556E6C6F616408
:101CE000696E672066696E697368656420320055A5
:101CF0006E6C6F6164203200556E6C6F6164696E4A
:101D0000672066696E6973686564203100556E6C82
:101D10006F61642031004D4D55207374617274738E
:101D200020726573706F6E64696E67004D4D55204B
:101D30006E6F7420726573706F6E64696E67006297
:101D40006F6F745F6170705F6D61676963203D30B4
:101D5000782530386C780A00626F6F745F6170703C
:101D60005F666C616773203D3078253032780A00F9
:101D7000626F6F745F726573657276656420203D73
:101D80003078253032780A00626F6F745F636F704D
:101D9000795F73697A65203D3078253034780A00A0
:101DA000626F6F745F6473745F6164647220203D5E
:101DB00030782530386C780A00626F6F745F737208
:101DC000635F6164647220203D30782530386C7820
:101DD0000A0022206661696C65643A204275666675
:101DE00065722066756C6C21002200256920686F81
:101DF000757273202569206D696E75746573005462
:101E0000494D454F55543A004D3131300046756CBF
:101E10006C20525820427566666572004375737473
:101E20006F6D0054657874757200536D6F6F7468D0
:101E30000047312059252D2E32662045252D2E3381
:101E400066004731205825642059252D2E32662002
:101E500045252D2E3366006673656E736F725F6362
:101E60006865636B706F696E745F7072696E740021
:101E70006673656E736F722076302E3420696E2023
:101E80006661756C742072616E676520342E362D24
:101E90003556202D20756E636F6E6E6563746564B4
:101EA000006673656E736F7220696E20666F726272
:101EB000696464656E2072616E676520312E352D10
:101EC0003356202D20636865636B2073656E736FD6
:101ED000720025530A20252D31362E313653252DFB
:101EE00033640A20252D31362E313653252D3364A7
:101EF0000025530A20252D31362E313653252D331A
:101F0000640A20252D31362E313653252D33640AAF
:101F100020252D31362E313653252D33640025539F
:101F20000A20252D31362E313653252D33640A20D3
:101F3000252D31362E313653252D33640A20252D9B
:101F4000372E37535820252D336420205920252D36
:101F500033640020257325336401200A000A2049D8
:101F600052203A2020202020202025332E31665672
:101F700000205057523A20202020202025342E3196
:101F800066560A204245443A20202020202025344D
:101F90002E3166560025530A20582025640A205900
:101FA0002025640025752E25752E25752E25750096
:101FB00025730020005072696E74657220495020AC
:101FC000416464723A002573002000466C617368B6
:101FD00041697220495020416464723A004D4D5568
:101FE00032202020202020204E2F410025642E2545
:101FF000642E25642D2564002046573A0046696CFE
:102000002E2073656E736F7220762E3A004A756EBD
:102010002020382032303231004533447636667520
:102020006C6C0045494E53795F31306100315F3748
:10203000356D6D5F4D4B33002D2D2D2D2D2D2D2DFF
:102040002D2D2D2D00207265706F20556E6B6E6FDB
:10205000776E0020332E31302E302D5243312D3407
:10206000303738004669726D776172653A004D37D6
:102070003032004D373031004D373032004D37307F
:102080003100464C4558202D20203234302F353039
:102090000050502020202D20203235342F31303078
:1020A0000048495053202D20203232302F3130301B
:1020B0000041425320202D20203235352F31303041
:1020C0000050564220202D20203231352F37350048
:1020D00050432020202D20203237352F3131300041
:1020E00041534120202D20203236302F3130350011
:1020F00050455420202D20203233302F38350050C9
:102100004C4120202D20203231352F3630006E6F8B
:102110007A7A6C65202D20203235302F30006661B0
:10212000726D2020202D20203235302F38300025B0
:102130002D31322E313253252B382E316600457821
:102140007472756465723A004D203834004D38342D
:10215000004D3234004D323320257300052E2E0001
:10216000257500593A202575202D3E202E2E2E0053
:10217000257500583A202575202D3E202E2E2E0044
:102180004D656173757265642066696C616D656E1D
:10219000742073656E736F72206C6F77206C657638
:1021A000656C3A2025342E3266560A004D656173FF
:1021B000757265642066696C616D656E7420736507
:1021C0006E736F722068696768206C6576656C3A1B
:1021D0002025342E3266560A0045787472206661D6
:1021E0006E2073706565643A2025640A0050726938
:1021F0006E742066616E2073706565643A20256494
:102200000A005465737420323A004578747220666F
:10221000616E2073706565643A2025640A0050720F
:10222000696E742066616E2073706565643A20255E
:10223000640A005465737420313A004D3834004705
:102240003830004D3435004D3435205A004737368C
:102250000057697A6172642073746174653A20254D
:10226000640A004578706572696D656E74616C0012
:102270004673656E736F7220446574656374696F2D
:102280006E0047312058352E302045342E30204600
:10229000313030302E30004731205A302E3230204D
:1022A00046313030302E30004731205835352E3011
:1022B000204532352046313430302E300047312031
:1022C000592D322E302046313030302E30004731FB
:1022D00020583234302E30204532352E30202046E2
:1022E000323230302E30004739322045302E300027
:1022F0004731205A302E332046313030302E3000D6
:102300004731205835352E302045382E3020463282
:102310003030302E300047312058352E30204533B4
:10232000322E302046313830302E300047312058A0
:1023300035352E30204533322E302046313037337C
:102340002E30004731204634303030004D323034AA
:10235000205331303030004731205A352046373253
:1023600030302E30303000473120452D312E353081
:102370003030302046323130302E30303030300086
:102380004D38330047393000473231004739322069
:1023900045302E3000473120583530205935352012
:1023A00045332E36323737330047312058323030FC
:1023B000205935352045302E3439333836004731F1
:1023C0002058323030205937352045332E363237B9
:1023D00037330047312058353020593735204530C4
:1023E0002E343933383600473120583530205939AA
:1023F000352045332E3632373733004731205832B7
:102400003030205939352045302E343933383600B4
:102410004731205832303020593131352045332E64
:102420003632373733004731205835302059313173
:10243000352045302E343933383600473120583571
:102440003020593133352045332E3632373733007B
:102450004731205832303020593133352045302E25
:102460003636313734004731205832303020593138
:1024700035352045322E3632373733004731205834
:102480003130302059313535204532004731205820
:10249000373520593135352045322E35004731202A
:1024A0004631303830004731205A302E3135302017
:1024B00046373230302E30303000473120583530FA
:1024C000205931353500252D3773003A2000256419
:1024D0002F3600252D32305300203A2000252D3292
:1024E0003073004739322045302E300047323800F3
:1024F0004D313039004D313930004D3130370054D5
:102500002564004731205A302E3420463130303097
:102510002E3000473120592D332E302046313030B7
:10252000302E30004D383300473120583130302EB6
:1025300030204531322E352046313030302E3000BB
:102540004731205836302E302045392E3020463144
:102550003030302E30002C2316230023F022E722C7
:10256000CE22BD22A822972282228C238823842374
:102570008023672357234C2343234731205835308A
:10258000205933352045252D2E336600BA24A62444
:102590009D248C247C24662450243B24262410244F
:1025A000FB23E723D323BE23A9239523496E76611A
:1025B0006C6964205049442063616C2E20726573FD
:1025C000756C74732E204E6F742073746F72656413
:1025D00020746F20454550524F4D2E004D35303000
:1025E000004731205A3135204631353030004739E7
:1025F00031004731205835302059313930204530AD
:1026000020463730303000473930004D3834004DE7
:10261000373032204300473120583130205931388B
:1026200030204634303030004731205A3130204697
:10263000313330302E303030004D31343020533093
:10264000004D31303420533000473120452D302E9D
:1026500030373530302046323130302E3030303067
:1026600030004D3130370000002100240027002ABF
:10267000002D003000330001010000040107010AB1
:102680000100002200250028002B002E003100341C
:102690000002010000050108010B010000200023D9
:1026A00000260029002C002F00320000010000034A
:1026B00001060109010505050507050808080802C6
:1026C0000202020A0A0808040404040101010101CB
:1026D0000101010303030303030303040707070CBA
:1026E0000C0C0C0C0C0C0C02020202060606060670
:1026F0000606060B0B0B0B0B0B0B0B07070A0A0A44
:102700000A0A0A050505040404080801021020202D
:102710000808102040102040800201020108040235
:1027200001010204081020408080402010080402AB
:102730000180040201804020100804020108040204
:10274000010102040810204080010204081020400A
:1027500080100804088010204004408010204004AD
:102760008000000A0B02090C0D0E0807030401008B
:102770000000000000000000000000000000000059
:102780000000000000000000000000000012111016
:102790000000000000000000000000000000000039
:1027A0000000000000000000000000000000000029
:1027B00000000000000000252D392E39535B002554
:1027C00063252D31382E31387325630057726974B3
:1027D000696E6720746F2066696C653A20004669EF
:1027E0006C6520616C7265616479206F70656E65DF
:1027F0006400332E31302E302D524331007263008D
:102800006265746100616C706861006465760000E7
:10281000002110422063308440A550C660E7700854
:102820008129914AA16BB18CC1ADD1CEE1EFF131DB
:1028300012100273325222B5529442F772D66239A4
:102840009318837BB35AA3BDD39CC3FFF3DEE3622B
:1028500024433420040114E664C774A44485546AF4
:10286000A54BB528850995EEE5CFF5ACC58DD553BB
:1028700036722611163006D776F6669556B4465B44
:10288000B77AA719973887DFF7FEE79DD7BCC7C48B
:1028900048E5588668A7784008611802282338CC94
:1028A000C9EDD98EE9AFF9488969990AA92BB9F51B
:1028B0005AD44AB77A966A711A500A333A122AFDE4
:1028C000DBDCCBBFFB9EEB799B588B3BBB1AABA6EB
:1028D0006C877CE44CC55C222C033C600C411CAE34
:1028E000ED8FFDECCDCDDD2AAD0BBD688D499D97FB
:1028F0007EB66ED55EF44E133E322E511E700E9F84
:10290000FFBEEFDDDFFCCF1BBF3AAF599F788F884A
:1029100091A981CAB1EBA10CD12DC14EF16FE1801B
:1029200010A100C230E3200450254046706760B912
:10293000839893FBA3DAB33DC31CD37FE35EF3B16B
:10294000029012F322D2323542145277625672EA62
:10295000B5CBA5A89589856EF54FE52CD50DC5E2BB
:1029600034C324A01481046674476424540544DBF2
:10297000A7FAB79987B8975FE77EF71DC73CD7D30B
:1029800026F2369106B01657667676154634564CC2
:10299000D96DC90EF92FE9C899E9898AB9ABA9445B
:1029A00058654806782768C018E1088238A3287D52
:1029B000CB5CDB3FEB1EFBF98BD89BBBAB9ABB75AB
:1029C0004A545A376A167AF10AD01AB32A923A2E22
:1029D000FD0FED6CDD4DCDAABD8BADE89DC98D26FB
:1029E0007C076C645C454CA23C832CE01CC10C1F32
:1029F000EF3EFF5DCF7CDF9BAFBABFD98FF89F174B
:102A00006E367E554E745E932EB23ED10EF01E7C15
:102A10003C3E3F2F2A225C0044697361626C652052
:102A20006661726D206D6F6465004D3834004D3401
:102A30003400473238205700200A200A2000473946
:102A4000390044697361626C65206661726D206D46
:102A50006F64653F0078797A63616C5F7370697247
:102A6000616C322063783D25642063793D256420C4
:102A70007A303D256420647A3D2564207261646962
:102A800075733D25642061643D25640A00506174BE
:102A90007465726E2063656E746572205B256620B6
:102AA00025665D2C206D6174636820256625250AE6
:102AB00000205B25662C2025665D5B25665D206613
:102AC000696E616C20636972636C650A00746D6382
:102AD000323133305F676F746F5F737465702025B8
:102AE00064202564202564202564200A004E6F2080
:102AF0003078464620726563656976656400536583
:102B00006E64696E672030784646006D6D0059002E
:102B10005800583A00593A005A3A002563252D3199
:102B2000332E313353252B352E33660054656D70AB
:102B3000657261747572652063616C69627261743B
:102B4000696F6E206661696C65642E20436F6E74D8
:102B5000696E756520776974682070726573736932
:102B60006E6720746865206B6E6F622E0054656D11
:102B700070657261747572652063616C69627261FF
:102B800074696F6E20646F6E652E20436F6E74697A
:102B90006E75652077697468207072657373696EED
:102BA0006720746865206B6E6F622E007B5B4552F8
:102BB000523A005D5B4657523A005D5B54494D3ACC
:102BC000005D5B464E4D3A005D5B46454D3A005D0B
:102BD0005B5043443A005B5446553A004D36303022
:102BE0000046696C616D656E74206F7574206F6648
:102BF0002072616E6765202564200A000000803F16
:102C0000555585410000803F0000C841000000404C
:102C1000555505420000C03F0000484200002040DA
:102C200055558542000070C1ABAAA642000060C1A4
:102C30000000A0410000C0C0000020410000204171
:102C4000ABAA3A41000020C15555D540000048C20A
:102C5000555505424D373031204534004D37303120
:102C6000204533004D373031204532004D3730316B
:102C7000204531004D3730312045300046696C61C8
:102C80006D656E74206E72206F7574206F66207291
:102C9000616E67652100206661696C65642E0020A5
:102CA0007375636365656465642E004D4D552063DF
:102CB000616E5F6C6F61643A004164646974696F4E
:102CC0006E616C206C6F616420617474656D7074EA
:102CD000206E722E2025640A0077323578323063F8
:102CE0006C5F63666D0A00773235783230636C5FF3
:102CF000656E7465720A0073746172740A0024F45C
:102D0000D43050C38E20C2A24017828B7011127A29
:102D1000910D816CD90AA861E108C7586607615115
:102D200043061E4B5D05C145A7041A411104093D28
:102D30009803713931034036DB0265339102D43098
:102D40005402802E1D02632CEE01752AC501B028A5
:102D5000A001102781018F2564012B244B01E02263
:102D60003401AC211F018D200D01801FFC00841E49
:102D7000ED00971DDF00B81CD200E61BC600201B2B
:102D8000BC00641AB200B219A8000A19A0006A189F
:102D90009900D117910040178B00B51684003116A9
:102DA0007E00B31579003A157300C7146F005814EC
:102DB0006A00EE1366008813630025135E00C712D5
:102DC0005B006C12570015125400C11151007011B4
:102DD0004F0021114B00D61049008D1047004610BE
:102DE000440002104200C00F4000800F3E00420F1E
:102DF0003C00060F3B00CB0E3800930E37005C0EF4
:102E00003500270E3400F30D3200C10D3100900D56
:102E10003000600D2E00320D2D00050D2C00D90C58
:102E20002B00AE0C2900850C29005C0C2700350C0A
:102E300027000E0C2600E80B2400C40B2400A00B76
:102E400023007D0B23005A0B2100390B2100180BA6
:102E50002000F80A1F00D90A1E00BB0A1E009D0AA6
:102E60001D00800A1D00630A1C00470A1B002C0A73
:102E70001B00110A1A00F7091A00DD091900C4091C
:102E80001900AB091900920917007B0918006309A2
:102E900017004C09160036091600200916000A0909
:102EA0001500F5081500E0081400CC081400B80857
:102EB0001400A4081400900813007D0812006B0889
:102EC00013005808120046081200340811002308A5
:102ED00011001208110001081100F0071000E007AE
:102EE0001000D0071000C0071000B0070F00A107A6
:102EF000100091070E0083070F0074070F0065078D
:102F00000E0057070E0049070E003B070D002E0765
:102F10000E0020070D0013070D0006070D00F9062F
:102F20000C00ED060D00E0060C00D4060C00C806EF
:102F30000C00BC060C00B0060C00A4060B009906A1
:102F40000C008D060B0082060B0077060B006C064A
:102F50000B0061060A0057060B004C060A004206E9
:102F60000A0038060A002E060A0024060A001A067D
:102F70000A001006090007060A00FD050900F4050D
:102F80000900EB050900E2050900D9050900D00593
:102F90000900C7050900BE050900B5050800AD0513
:102FA0000800A50509009C050800940508008C058B
:102FB0000800840508007C050800740508006C05FD
:102FC0000700650508005D050700560508004E0569
:102FD00007004705070040050800380507003105D0
:102FE00007002A050700230507001C050600160533
:102FF00007000F0507000805060002050700FB048F
:103000000600F5040700EE040600E8040600E204EA
:103010000700DB040600D5040600CF040600C9043F
:103020000600C3040600BD040600B7040600B10490
:103030000500AC040600A6040600A00405009B04DD
:10304000060095040500900406008A040500850426
:103050000500800406007A0405007504050070046C
:1030600005006B04050066040500610405005C04AE
:10307000050057040500520405004D0405004804EE
:103080000500430405003E0404003A04050035042D
:103090000500300404002C04050027040400230468
:1030A00005001E0404001A0404001604050011049F
:1030B00004000D04040009040500040404000004D5
:1030C0000400FC030400F8030400F4030400F0030C
:1030D0000400EC030400E8030400E4030400E0033C
:1030E0000400DC030400D8030400D4030400D0036C
:1030F0000400CC030400C8030300C503030024F448
:1031000004D9201BC40C5C0E9804C4095F02650737
:103110007101F405F900FB04B30048048700C10302
:1031200069005803550003034500BE023A008402BB
:10313000310053022A002902250004022000E40184
:103140001C00C8011900AF01170098011400840188
:103150001300710110006101100051010E004301C4
:103160000D0036010B002B010B0020010B00150197
:1031700009000C01090003010800FB000800F3002E
:103180000800EB000700E4000600DE000600D8009F
:103190000600D2000600CC000500C7000500C200F2
:1031A0000500BD000400B9000400B5000400B10032
:1031B0000400AD000400A9000400A5000300A20063
:1031C00003009F0004009B0003009800030095008B
:1031D000020093000300900003008D0002008B00AA
:1031E00003008800020086000200840003008100C2
:1031F00002007F0002007D0002007B0002007900D7
:1032000002007700010076000200740002007200E4
:103210000100710002006F0002006D0001006C00EF
:1032200002006A00010069000200670001006600F8
:1032300001006500010064000200620001006100FD
:103240000100600001005F0002005D0001005C0001
:1032500001005B0001005A00010059000100580004
:103260000100570001005600010055000100540004
:103270000100530000005300010052000100510002
:103280000100500001004F0001004E0000004E0000
:1032900001004D0001004C0001004B0000004B00FC
:1032A00001004A00010049000100480000004800F8
:1032B00001004700010046000000460001004500F3
:1032C00000004500010044000100430000004300ED
:1032D00001004200000042000100410000004100E6
:1032E0000100400001003F0000003F0001003E00DF
:1032F00000003E0001003D0000003D0001003C00D8
:1033000000003C0000003C0001003B0000003B00CE
:1033100001003A0000003A000100390000003900C5
:1033200001003800000038000000380001003700BC
:1033300000003700010036000000360000003600B3
:1033400001003500000035000000350001003400A8
:10335000000034000000340001003300000033009E
:103360000000330001003200000032000000320093
:103370000100310000003100000031000100300088
:10338000000030000000300001002F0000002F007E
:1033900000002F0000002F0001002E0000002E0072
:1033A00000002E0001002D0000002D0000002D0067
:1033B00000002D0001002C0000002C0000002C005B
:1033C00000002C0001002B0000002B0000002B004F
:1033D00000002B0001002A0000002A0000002A0043
:1033E00000002A0001002900000029000000290037
:1033F000000029000000290001002800000028002A
:10340000000028000000280000002800010027001C
:103410000000270000002700000027000000270010
:103420000100260000002600000026000000260003
:1034300000002600010025000000250000002500F6
:1034400000002500000025000000250001002400E8
:1034500000002400000024000000240000002400DC
:1034600001002300000023000000230000002300CF
:1034700000002300000023000000230001002200C0
:1034800000002200000022000000220000002200B4
:1034900000002200010021000000210000002100A6
:1034A0000000210000002100000021000000210098
:1034B000010020000000200000002000000020008B
:1034C000000020000000200000002000000020007C
:1034D00001001F0000001F0000001F0000001F006F
:1034E00000001F0000001F0000001F0001001E0060
:1034F00000001E0000001E0000001E000000746D91
:1035000063323133305F686F6D655F656E7465720D
:1035100028617865735F6D61736B3D30782530325B
:1035200078290A00746D63323133305F686F6D65DE
:103530005F6578697420746D63323133305F73670F
:103540005F686F6D696E675F617865735F6D6173EA
:103550006B3D3078253032780A00726573756C7473
:103560002076616C75653A2025640A0020693D2546
:10357000326420636E743D2532642076616C3D2593
:1035800032640A00636C7573746572733A00206963
:103590003D25326420737465703D2532640A0073E2
:1035A0006F727465642073616D706C65733A005559
:1035B00053415254322072782046756C6C2121217F
:1035C0000000007F4300805443000052430000008D
:1035D00000000080C09A99193E00000000000080A1
:1035E000C09A99193E0000A0400000A040000000D1
:1035F0004025336420737465703D253264206D73FB
:10360000636E743D2534640A0000007F43008058D7
:10361000439AD95143FFFFFF20413A0020503A001E
:103620002042403A0020403A00202F002054002041
:103630002F0020423A00202F00543A0020453A0043
:10364000205A3A0020593A0020453A00205A3A00C0
:1036500020593A00583A0067636F64655F4D373010
:103660003120626567696E0A007B5B50524E3A39C1
:10367000395D007B5B50524E3A355D007B5B5052AA
:103680004E3A305D007B5B50524E3A395D007B5BB9
:1036900050524E3A385D007B5B5245533A305D5B89
:1036A00046494C3A007B5B5245533A315D5B464993
:1036B0004C3A005B50524E3A005B50464E3A305DF9
:1036C000005B4449413A005D5B4154423A005D5B16
:1036D0004154303A005D5B5354423A005B535430DE
:1036E0003A00505255534133444657005365747461
:1036F000696E67732053746F7265640053746F72E0
:1037000065642073657474696E6773207265747282
:1037100069657665640048617264636F64656420FE
:1037200044656661756C742053657474696E677363
:10373000204C6F6164656400563200000000C8428E
:103740000000C8420000C84300008C43000048430A
:1037500000004843000040410000F042E803000040
:10376000E8030000C80000008813000000409C44EB
:1037700000409C440000000000000000204E0000BB
:103780000000204100002041CDCCCC3E0000904004
:10379000000000000000000000000000CDCCCC3E86
:1037A0003D0A8141FF08433EB099AB438F42FC4242
:1037B000E65A343F4C62B045000000000040400033
:1037C0000034420000000000000000000000410042
:1037D0000000E03F0000C8420000C8420000404135
:1037E0000000F042C0030000C0030000C800000059
:1037F000881300001010102000409C4462757379FB
:103800003A2070617573656420666F7220696E700E
:10381000757400627573793A207061757365642000
:10382000666F72207573657200627573793A2070E5
:10383000726F63657373696E67004D3234004D3289
:1038400033202573006175746F25692E670022206F
:103850006661696C65643A204275666665722066C9
:10386000756C6C2100456E717565696E6720746FAB
:10387000207468652066726F6E743A20220045726B
:10388000726F723A002200456E717565696E67202D
:10389000746F207468652066726F6E743A2022001F
:1038A0006563686F3A00454550524F4D204572722E
:1038B0006F72004D494E54454D502042454420669C
:1038C00069786564004D494E54454D5020484F5429
:1038D000454E442066697865640025632041584957
:1038E00053205347313D25640A00486F74656E6468
:1038F00000426564005A00590058002D2D2D2D2DD1
:103900002D2D2D2D2D2D2D2D2D2D2D2D2D2D2D0014
:103910004F4B000000000000110A042225732220F2
:10392000004449525F45584954004449525F454E4E
:103930005445523A20257320222573220A004669F5
:103940006C652073656C6563746564002053697AE7
:10395000653A200046696C65206F70656E65643A53
:1039600020004E6F772066726573682066696C650B
:103970003A20004E6F7720646F696E672066696C2D
:10398000653A20002220706F7300222070617265FA
:103990006E743A2200535542524F5554494E4520B9
:1039A00043414C4C207461726765743A2200747212
:1039B00079696E6720746F2063616C6C2073756227
:1039C0002D67636F64652066696C65732077697421
:1039D0006820746F6F206D616E79206C6576656C00
:1039E000732E0046696C616D656E742073656E732D
:1039F0006F7220626F617264206368616E67652018
:103A000064657465637465643A2072657669736988
:103A10006F6E25530A004D363030006673656E7345
:103A20006F725F757064617465202D204D36303083
:103A30000049522073656E736F72206E6F7420722E
:103A40006573706F6E64696E672028256429210A8A
:103A500000005101790111241FBECFEFD1E2DEBF7A
:103A6000CDBF00E00CBF14E0A0E0B2E0E4E2FDEC6A
:103A700003E00BBF02C007900D92AE35B107D9F736
:103A800029E1AEE5B4E001C01D92A03DB207E1F727
:103A90001DE1CAE2DDE100E006C021970109802FA7
:103AA000FE010F94D0B4C932D10780E00807A9F70E
:103AB0000F9412860D94DFB50C9400002F923F9264
:103AC0004F925F926F927F928F929F92AF92BF922E
:103AD000CF92DF92EF92FF920F931F93CF93DF93DA
:103AE000CDB7DEB7CE56D1090FB6F894DEBF0FBE04
:103AF000CDBF80911905823061F483E08093190570
:103B000080911C05882319F00E944ED602C00E94A5
:103B10001CD78091651090916610892B11F40C943C
:103B20009E5782E080934E028FE89FE00F942261BF
:103B30008823C1F080917E0690917F066AE270E052
:103B400005960F942BB5009711F0DC011C92809123
:103B50007E0690917F0605960F940A7087E0809309
:103B6000030F16C08CE89FE00F942261811117C0EB
:103B700088E89FE00F942261811111C0A8C00E94C3
:103B800010F280916C15882309F495C01092030FF0
:103B900081E080934E020F941D820C949E570091F9
:103BA0007E0610917F0680E50F943661882309F424
:103BB00089C00F9419610F9448B16B017C01BB243B
:103BC000B394672B682B692B09F4B12C83E50F9410
:103BD0003661882391F00F94196120E030E04AE7C4
:103BE00054E40F94A4A30F9448B16B017C01AA2460
:103BF000A394672B682B692B09F4A12C0E5F1F4F30
:103C00006AE270E0C8010F942BB5009711F0FC0137
:103C100010829801C9012F5F3F4FDC014C91403267
:103C2000C9F326E02093030FB11008C0A11006C00D
:103C30002C91222319F00F940A7006C08BE19BE7A8
:103C40000E94D78B0F94247081E08093BA06109263
:103C5000B9060F9481260F94B44D6093A619709302
:103C6000A7198093A8199093A919C114D104E1044C
:103C7000F10409F484CF0F94B44DC60ED71EE81E8C
:103C8000F91E84E080934E020F94B44D6C157D05AF
:103C90008E059F0510F00C94E5530E941385811149
:103CA0000C94E5530E940C9681E00F94C47E80E052
:103CB0000E944C84E9CF86E59BE70E94D78B0F9446
:103CC000247066CFB12CC12CD12C76017FCFC0904F
:103CD0005412D0905512860106591F4E46E050E00E
:103CE00061E87FE0C8010F9425A8892B09F0D9C0AD
:103CF00082E79FE00F942261882309F49EC088E543
:103D00000F943661182F89E50F9436618111126086
:103D10000F94812680915F0401E0080F00935F04F7
:103D2000811105C080E595E10E9486B60EC048EC81
:103D30005FEA60E070E080E595E10E9400B68823CC
:103D400031F01092501510925F0401E007C003306B
:103D500049F71092501510925F0400E081E00E9434
:103D600007890E94D78882E00E944C8410FF15C00A
:103D700086E69FE00F9448AF61E0680F86E69FE01B
:103D80000F9469AF85E09FE00F9455AFBC016F5F62
:103D90007F4F85E09FE00F9483AF11FF15C088E649
:103DA0009FE00F9448AF61E0680F88E69FE00F94B2
:103DB00069AF83E09FE00F9455AFBC016F5F7F4F09
:103DC00083E09FE00F9483AF81E00E94078982E047
:103DD0000E944C8487E39AE70E94D78B0F9424704B
:103DE00040E061E081E00F941B570F94812600238F
:103DF00021F061E083E99BE01DC0E091F10EF0E06D
:103E0000EE0FFF1FE95AFB4E1182108287E19AE7FD
:103E10000E94D78B40E060E00F94F311182F81E0EF
:103E20000E94078961E0112319F085E89BE002C038
:103E300088E79BE00E94F7B2ABCE84E69FE00F9448
:103E40002261882379F060E070E080E89FE30E94BF
:103E5000C37E0F94B360882309F49ACE81E08093E7
:103E6000150296CE87E59FE00F942261882309F41E
:103E70008FCE1092010F81E08093150280911A0578
:103E8000811103C00F945F1983CE813009F080CE79
:103E900087E195E70F940C640F942D650E94DAB4C6
:103EA00077CE44E050E062E57FE0C8010F9425A89A
:103EB000892B09F007C1860102591F4E49E050E0E5
:103EC00068E47FE0C8010F9425A8892BC9F4F601A6
:103ED000E958FF4E1081153429F01855143008F0B8
:103EE00057CE01C013E04AE050E060E070E0C60148
:103EF00088589F4E0F94DFA5812F0F94206A48CEDB
:103F000049E050E06EE37FE0C8010F9425A8892BBB
:103F100051F5F601E958FF4E1081153429F0185576
:103F2000143008F035CE01C013E04AE050E060E004
:103F300070E0C60188589F4E0F94DFA5E12FF0E096
:103F4000E051FB4F40E051E0008002C0569547959C
:103F50000A94E2F7842F880F880F81506823812FFD
:103F60000F94D20015CE49E050E064E37FE0C80131
:103F70000F9425A8892B09F00BCEF601E958FF4EC6
:103F80008081853441F018EAB12EB80EB3E0BB153C
:103F900008F4FECD02C0B3E0BB2EEB2CF12C4701A0
:103FA000880C991CF401ED58FD4F1081012F0F7002
:103FB000712E7294AFE07A22272D2770722E111F76
:103FC0001127111F61816770660F162BF401EC58E1
:103FD000FD4F9081A92EA694A694A6943A2D3370F5
:103FE000A32E1A821982C60188589F4EDC012C919B
:103FF0002223E1F14AE050E0BE016F5F7F4F0F9452
:10400000DFA5062F0F7089819A81009779F1FC0155
:104010002081222359F14AE050E0BE016F5F7F4FBB
:104020000F94DFA56770762E89819A810097F1F051
:10403000DC012C912223D1F04AE050E0BE016F5FF9
:104040007F4F0F94DFA5162F1F7089819A810097EB
:1040500069F0FC012081222349F04AE050E0BE01D2
:104060006F5F7F4F0F94DFA56370A62EF401ED58AC
:10407000FD4F272D27702295207F612F679566279A
:104080006795202B262B2083212F26951181107ECA
:104090009A2D9370990F990F990F122B192B118349
:1040A000C7018A5D9D4FD701A65DBD4FB701605125
:1040B0007B4FFC0120814C91DB016C918B2D0F9487
:1040C0007C4966CD8EE29FE00F942261882309F43B
:1040D000F1C189E29FE00F942261882381F08091F1
:1040E000F20E882309F454CD0F94B44D60936615F5
:1040F00070936715809368159093691549CD85E293
:104100009FE00F942261882351F0809145108F9396
:10411000809144108F9388E59EE60C940B308BE1E0
:104120009FE00F942261882309F43FC01092A706F4
:1041300014E6C12CD12C76016F9A779864E170E077
:1041400080E090E00F947C4D0F94564D4B015C0144
:10415000F8946F98679BFECF78940F94564DDC01CE
:10416000CB0188199909AA09BB09C816D906EA061C
:10417000FB0610F46C017D011150F1F68DE69BE019
:104180000F940C64B5EFCB16B1E0DB06E104F1044B
:1041900018F089E69BE002C086E69BE00F940C6471
:1041A0000F942D656F98779AF3CC87E19FE00F9479
:1041B0002261882321F14091B7045091B8042CE387
:1041C000249FC001259F900D11249F938F934091B0
:1041D000B5045091B604249FC001259F900D112471
:1041E0009F938F9381E49EE69F938F930F9462A990
:1041F0000F900F900F900F900F900F90C9CC83E10C
:104200009FE00F942261882319F01092FA04C0CC29
:104210008EE09FE00F942261882349F060E085EAF8
:104220009FE00F9469AF61E08AE09FE003CE83E0F6
:104230009FE00F942261882319F00E9431A2A8CC3C
:104240008DEF9EE00F942261882381F08AEA95E544
:10425000DC018093FC1F9093FD1FA093FE1FB09381
:10426000FF1F88E08093FB1F0F940D618CE393E0A8
:104270000F942261882329F180917E0690917F0618
:1042800061E003960F947B7C8091CC189091CD18BF
:10429000A091CE18B091CF188093491990934A19E4
:1042A000A0934B19B0934C1984EC98E10E9480E8DC
:1042B0008C010F94F4630A30110531F70F94C76B2A
:1042C00067CC89EF9EE00F942261882391F041E052
:1042D00068EB71E089E190E00F94963381E0809380
:1042E000180580917E0690917F0604960F945C9647
:1042F0004FCC86EF9EE00F9422618823A1F044E129
:1043000050E065E17DE0CE0101960F9438AF8C89D5
:10431000882321F08BEE9EE00C94BE51CE010196D5
:104320000F94AFB535CC87EE9EE00F9422618823C1
:1043300019F08FE393E008C083EE9EE00F942261B2
:10434000882329F08FE493E00F94BA6521CC8EED99
:104350009EE00F942261811134C08BED9EE00F949A
:104360002261882371F081EA9DE00F9448AFEBE071
:104370008E9FC001112460E070E0805B924F0C942E
:10438000EE5386ED9EE00F942261882359F00F943E
:10439000B44D609362157093631580936415909388
:1043A0006515F6CB83ED9EE00F942261882361F0C2
:1043B0000E94D78840E060E070E084E690E00F94CF
:1043C00096330E947D8AE4CB8FEC9EE00F942261AD
:1043D0008823E1F086E50F943661882309F4D8CB71
:1043E0000F94609B11E0892B09F410E00F94812653
:1043F000212F30E080916C1490E02817390709F4E0
:10440000C7CB10936C140F947A01C2CB88EC9EE05A
:104410000F942261882309F4BBCB84E40F943661A6
:104420008823A1F00F94196120E030E04AE754E4BA
:104430000F94A4A320E030E040E05FE30F94E3AFEB
:104440000F9448B1CB010F948599A2CB84EC9EE0E8
:104450000F942261882311F40C94F2538091F20E90
:10446000882311F40C94F25380917E0690917F067C
:10447000029690937F0680937E060F9419616B01DC
:104480007C016FEF87EA9DE00F9469AF20E030E098
:104490004AE754E4C701B6010F94A4A320E030E03A
:1044A00040E05FE30F94E3AF0F9448B185EA9DE0ED
:1044B0000C94EE5387E40F943661182F882311F47F
:1044C0000C94ED2F0F9419610F9442B1AB01BC0114
:1044D00050936104409360044B34510509F43BC28E
:1044E00008F080C04430510509F4A5C148F420917A
:1044F00089194230510509F48DC108F4C4C091C135
:104500004531510511F40C94E72F58F44A30510508
:1045100009F4DEC14B30510511F00C94D52F80E029
:10452000D8C14C31510509F4D8C14E31510511F0B3
:104530000C94D52F81E080937B190F94812681E024
:104540000F9460578C0180E090E0A8E4B4E480937D
:10455000480290934902A0934A02B0934B0243E071
:1045600060E070E080E291EC0F9488037090E80EB8
:104570006090E90E5090EA0E4090EB0EB090E40E81
:10458000A090E50E9090E60E8090E70EF090E00E81
:10459000E090E10ED090E20EC090E30E8BE099E93E
:1045A0000E94D78B4F925F926F927F928F929F92D1
:1045B000AF92BF92CF92DF92EF92FF929F938F9331
:1045C0002CE13EE63F932F930F9462A9C8010F940C
:1045D0003F5710927B190FB6F894DEBF0FBECDBFC8
:1045E0000C94E72F4835510511F40C94E72FE8F4AB
:1045F0004135510511F40C94D62E50F44C3451052C
:1046000009F4CEC14035510509F40EC60C94D52FDE
:104610004635510511F40C942E2F4735510511F0F4
:104620000C94D52F81E00C942F2F4C35510511F4AB
:104630000C94382F78F44A35510511F40C94322F2C
:104640004B35510511F00C94D52F8091020F8760E6
:104650000C94352F4236510511F40C94B82F433683
:10466000510511F00C94D52F1092F20E81E0809339
:10467000830260E084EC9FE00F9469AF82E00E94C7
:104680004C840C94D22F21110C94E72F0F94A4A2E8
:1046900020E030E040E85FEB6091570270915802F3
:1046A0008091590290915A020F9458AA8823F9F0E8
:1046B000E0915412F0915512E959FF4E80818B7FA1
:1046C0008230A9F480E1E7E5F2E0A1E3BFE00190E8
:1046D0000D928A95E1F780E090E0A0E8BFEB80932F
:1046E000570290935802A0935902B0935A026091D6
:1046F000060F7091070F8091080F9091090F0F948A
:104700005CAA6B017C014090EC0E5090ED0E609025
:10471000EE0E7090EF0E80903D0F90903E0FA090A7
:104720003F0FB090400FA5019401C301B2010F9457
:10473000E2AF20E030E048EC52E40F94A4A39B01E8
:10474000AC01C701B6010F942EB21816E4F4A30110
:104750009201C501B4010F94E2AF20E030E048ECD3
:1047600052E40F94A4A39B01AC01C701B6010F94BE
:10477000E3AF0F9448B16093060F7093070F8093D7
:10478000080F9093090F80919E0E882309F43EC074
:1047900088E50F943661811139C089E50F9436613F
:1047A000811134C08AE50F94366181112FC085E4F0
:1047B0000F943661882351F12091EC0E3091ED0E6B
:1047C0004091EE0E5091EF0E60913D0F70913E0FB3
:1047D00080913F0F9091400F0F94E2AF6B017C01ED
:1047E0002DEC3CEC4CEC5DEB0F9458AA87FF02C01B
:1047F0000C9405542DEC3CEC4CEC5DE3C701B60188
:104800000F942EB2181614F40C940E540F948AA020
:104810000C94E72F21110C94E72F0F946FA381E0E4
:1048200006C021110C94E72F0F946FA380E00F9422
:10483000E79C0C94E72F80E50F943661882339F0CC
:104840000F9419610F9448B16B017C0103C0C12C16
:10485000D12C760183E50F943661882361F00F94A3
:10486000196120E030E04AE754E40F94A4A30F94C8
:1048700048B16B017C01C114D104E104F10421F0C1
:1048800088E39EE60F9424700F9481260F94B44D14
:10489000C60ED71EE81EF91E0F94B44D6093A619DC
:1048A0007093A7198093A8199093A9190F94B44DE8
:1048B0006C157D058E059F0510F00C94E72F0E9466
:1048C0000C9680E00F94C47E80E00E944C84EECF72
:1048D00081E00F945F970C94E72F88E50F94366181
:1048E0008DA70F946D9B1B012C0189E50F943661F8
:1048F000682E0F946D9B6DAB7EAB8FAB98AF8AE546
:104900000F943661D82E0F946D9B4B015C0187E5A7
:104910000F943661782E83E40F9436617F928F93E3
:10492000CD2CEDA8FEA80FA918AD262DB201A1012E
:104930008DA50F94E8540F900F903DA531110C9464
:10494000E72F61100C94E72F71100C94E72FD11012
:104950000C94E72F69C408E210E073E1E72E7EE6CD
:10496000F72EB801012E000C880B990B0F945EAA4C
:104970000E9468799F938F937F936F931F930F93F8
:10498000FF92EF920F9462A90F5F1F4F0FB6F8943A
:10499000DEBF0FBECDBF0F36110519F70C94E72F00
:1049A00020E030E040E251E460910207709103079B
:1049B00080910407909105070F942EB287FF04C0E1
:1049C00080EB9EE00C94292F0F944C638A3F40F0BB
:1049D00087EF9AE70E94D78B0F949C120C94E72FD5
:1049E00080916D05882309F42EC480916E0588237B
:1049F00009F429C480916F05882309F424C48EEA40
:104A00009AE70E94D78B0F949C1285E591E80E944B
:104A1000D78B40E060E00F94F311882309F461C064
:104A200080E090E0A0EAB0E48093E80E9093E90E75
:104A3000A093EA0EB093EB0E60E070E088E492E49D
:104A40000F940A1C80E090E0A8E4B2E48093E80EA2
:104A50009093E90EA093EA0EB093EB0E80E090E005
:104A6000A4E3B3E48093E40E9093E50EA093E60EE6
:104A7000B093E70E60E070E088E492E40F940A1CC3
:104A80000F9481268BE291E80E94D78B0F949C12A1
:104A9000EFE1F3E185919591A591B4918093E40EB6
:104AA0009093E50EA093E60EB093E70EEBE1F3E1F1
:104AB00085919591A591B4918093E00E9093E10E2C
:104AC000A093E20EB093E30E60E070E088E492E41D
:104AD0000F940A1C0F94812641E060E080E00F945F
:104AE0001B5720E030E04CE052E4609102077091E7
:104AF000030780910407909105070F942EB21816B2
:104B00000CF088C08091F20E811184C080E090E0AA
:104B1000A8ECB2E48093E80E9093E90EA093EA0E1D
:104B2000B093EB0E60E070E088E492E40F940A1C0E
:104B300080E090E0ACE0B2E48CA39DA3AEA3BFA361
:104B40000E94E28519821A821B821C82CE01019684
:104B50000F94BB6B109291191092901919821A82BE
:104B60001B821C821D82CE0101960E9486B62CA15A
:104B70003DA14EA15FA16091020770910307809152
:104B80000407909105070F942EB218169CF585EF37
:104B900099E70E94D78B0F94E61164E080E00E94B1
:104BA0000E8682E00E946C8982E097E00E9473AEDC
:104BB0000E944A8A8FE20E946C89CE0184960E94EC
:104BC00073AE0E944A8A8EE693E00E944A8A88EE7B
:104BD00093E00E9481800E94B17840E053E567E055
:104BE00070E0CE0101960E9400B6882309F4BFCF81
:104BF00010E001C011E063E179E381E00E94C0852B
:104C000081E00E940789111105C080E00F94A998E6
:104C10000C94E72F11E010937B1981E00E94078923
:104C200010934E028BE89EE00F940C640F942D6558
:104C30001A821982C0900207D0900307E0900407FF
:104C4000F090050720E030E040EA50E4C701B601EB
:104C50000F94D1B00F9442B125E0269FA001279F69
:104C6000500D1124BA01550F880B990B0F945EAAB1
:104C70001B012C0120E030E04CE052E40F9458AAD4
:104C800087FF06C0212C312C5CE0452E62E4562EB5
:104C9000A7019601622D732D842D952D0F9458AA8E
:104CA00087FF0CC020E030E040EA50E4622D732D15
:104CB000842D952D0F94E3AF1B012C015F924F9231
:104CC0003F922F928AEF9DE69F938F930F9462A954
:104CD00020E030E040EF51E4622D732D842D952DBE
:104CE0000F94E2AF20E030E04CE852E40F94E3AFE1
:104CF0000F9442B1709391196093901984E080935E
:104D0000030F81E090E09093C9068093C80687E581
:104D100093E90E94D78B0F94247080E090E0A0EA82
:104D2000B0E48093E80E9093E90EA093EA0EB0935E
:104D3000EB0E60E070E088E492E40F940A1C80E0DF
:104D400090E0A0EAB1E48093E00E9093E10EA0938E
:104D5000E20EB093E30E80E090E0A0E7B2E480932F
:104D6000E40E9093E50EA093E60EB093E70E60E09C
:104D700070E088E492E40F940A1C8AE999E9A9E1B9
:104D8000BEE38093E80E9093E90EA093EA0EB093F1
:104D9000EB0E60E070E088E492E40F940A1C0F943C
:104DA00081260F900F900F900F900F900F90222D53
:104DB000332D442D552D609102077091030780918A
:104DC0000407909105070F9458AA87FF07C088EE43
:104DD00093E00E9481800E94B178E9CF60E086EA8A
:104DE0009FE00F9469AF80E090E0A0EAB0E4809388
:104DF000E80E9093E90EA093EA0EB093EB0E60E0FC
:104E000070E088E492E40F940A1CEBE1F3E18591F1
:104E10009591A591B4918093E00E9093E10EA093AB
:104E2000E20EB093E30EEFE1F3E185919591A59148
:104E3000B4918093E40E9093E50EA093E60EB093A8
:104E4000E70E60E070E088E492E40F940A1C0F948F
:104E5000812643E060E070E080E89FEB0F948803D8
:104E6000882309F4DCC17091E80E7DA78091E90EDA
:104E70008DAB9091EA0E99ABA091EB0EA9AFAF93D9
:104E80009F938F937F938DEE9DE69F938F930F94C7
:104E900062A90F900F900F900F900F900F902EEA35
:104EA000C22E2FE0D22EAA24AA94BA2C43E2E42EDA
:104EB000F12C812C912C8501B7010F2C000C880B53
:104EC000990B0F945EAA9B01AC0134016FEF661A37
:104ED000760AFF92EF927F926F92A1EBBDE6BF93AD
:104EE000AF93AC962FAFAC97AD963FAFAD97AE9664
:104EF0004FAFAE97AF965FAFAF970F9462A90F9089
:104F00000F900F900F900F900F90AC962FADAC9725
:104F1000AD963FADAD97AE964FADAE97AF965FAD48
:104F2000AF97FFEFAF16BF0611F40C945057BE01B8
:104F30006F5F7F4FC6010F946D13AC962FADAC978A
:104F4000AD963FADAD97AE964FADAE97AF965FAD18
:104F5000AF97622D732D842D952D0F9458AA181696
:104F60008CF425E08216910459F0B5E0EB0EF11CAB
:104F7000EFEFAE1ABE0AF2E0CF0ED11C43019BCF79
:104F800005E010E0180137E2231A38EF330A220C4B
:104F9000331C780143E0E40EF11C25E0209FC001A2
:104FA000219F900D112400E010E0BC01635D7F4F54
:104FB0007BAF6AAF9AE9892E99E9992E99E1A92EDA
:104FC0009EE3B92EC701029705970CF027C16AAD81
:104FD0007BAD600F711F072E000C880B990B0F948F
:104FE0005EAA2B013C01FF92EF92A4EABDE6BF93BB
:104FF000AF930F9462A9F092C906E092C80620E030
:1050000030E040EF51E4C301B2010F94E2AF20E081
:1050100030E040E251E40F94A4A320E030E040EA05
:1050200050E40F94D1B020E030E048E452E40F9413
:10503000E3AF0F9442B1709391196093901980E09F
:1050400090E0A0EAB0E48093E80E9093E90EA0937C
:10505000EA0EB093EB0E60E070E088E492E40F9407
:105060000A1C20E030E040EA51E42093E00E309347
:10507000E10E4093E20E5093E30E40E050E060E713
:1050800072E44093E40E5093E50E6093E60E709345
:10509000E70E60E070E088E492E40F940A1C8092CE
:1050A000E80E9092E90EA092EA0EB092EB0E60E04C
:1050B00070E088E492E40F940A1C0F9481260F900C
:1050C0000F900F900F90A3019201609102077091D1
:1050D000030780910407909105070F9458AA87FF52
:1050E00007C088EE93E00E9481800E94B178EBCFE8
:1050F00080E090E0A0EAB0E48093E80E9093E90E9F
:10510000A093EA0EB093EB0E60E070E088E492E4C6
:105110000F940A1CEBE1F3E185919591A591B4916F
:105120008093E00E9093E10EA093E20EB093E30E15
:10513000EFE1F3E185919591A591B4918093E40E0F
:105140009093E50EA093E60EB093E70E60E070E05A
:1051500088E492E40F940A1C0F94812643E060E0F7
:1051600070E080E89FEB0F9488030B5F1F4F5FEFA9
:10517000E51AF50A811103C00F94A9984FC07DA5C7
:105180006DA999A989AD272F362F492F582F6091E6
:10519000E80E7091E90E8091EA0E9091EB0E0F945B
:1051A000E2AF762E672ED82EC92E2091280E309190
:1051B000290E40912A0E50912B0ED301F6016B2F30
:1051C0007A2F8F2F9E2F0F94A4A30F9442B17A832E
:1051D0006983CF92DF926F927F92809105078F93C0
:1051E000809104078F93809103078F93809102072A
:1051F0008F93A8E7BDE6BF93AF930F9462A9BE015A
:105200006F5F7F4FC1010F946D13F2E02F0E311CC1
:105210000FB6F894DEBF0FBECDBFD4CE81E00F94A1
:10522000A99810927B19D3C681E080937A19809156
:105230006D05882341F080916E05882321F08091CF
:105240006F05811108C081E08093641089EA9EE0B7
:105250000F94956CBCC68EE40F943661882349F098
:105260000F94539B382E37E0831741F0B3E03B2E69
:1052700005C08BEA9DE00F9448AF382E82E50F946D
:105280003661882349F00F94539B482E4AE0481713
:1052900040F4AAE04A2E05C08AEA9DE00F9448AF88
:1052A000482E8CEA9DE00F9448AF89AF5091030FD0
:1052B0005AAF6091C8067091C90622967FAF6EAF53
:1052C000229781E08093030F832D90E09EA78DA706
:1052D000339C30011124C3010A969093C906809330
:1052E000C80681E00E944C840F94020B0E94B1A674
:1052F00080E090E0A0EAB0E48093E80E9093E90E9D
:10530000A093EA0EB093EB0E65E575E585E591E4B3
:105310000F940A1C80E090E0A0E8BFE38093E00EC9
:105320009093E10EA093E20EB093E30E8093E40E0F
:105330009093E50EA093E60EB093E70E64EE7EE048
:1053400080EE9EE00F94036260E070E088EC92E4EF
:105350000F940A1C0F9481260F942996082F80E041
:105360000F9460579AAB89AB512C9FEF930D259604
:105370009FAF25972DA53EA5032E000C440B550B82
:105380002C962CAF3DAF4EAF5FAF2C978DA59EA551
:105390000197AC01990F660B770B60964CAF5DAF30
:1053A0006EAF7FAF6097252D30E03EAB2DAB26155D
:1053B000370509F4AFC1852D632D0F9474B4182FF0
:1053C000292E80FF05C025965FAD2597591B252EF8
:1053D00067E0361211C0822D63E00F9474B491110E
:1053E0000FC0812F0F9474B491110AC00F942996A5
:1053F00081110C945C5704C001110C94685701C0D2
:1054000000E0C12CD12C760121100FC011110DC06C
:1054100020E030E040EA50E42093E80E3093E90EBB
:105420004093EA0E5093EB0E24C02C966CAD7DADEC
:105430008EAD9FAD2C970F945EAA9B01AC0160E0EE
:1054400070E080E090E40F94D1B09B01AC016091DA
:10545000E80E7091E90E8091EA0E9091EB0E0F9498
:10546000E3AF6093E80E7093E90E8093EA0E909399
:10547000EB0E4091E80E5091E90E6091EA0E7091AA
:10548000EB0E4CAF5DAF6EAF7FAF60E070E080EAD7
:1054900091E40F940A1C0F94812660966CAD7DAD4B
:1054A0008EAD9FAD60970F945EAA4B015C01622D9B
:1054B00070E080E090E00F945CAA20E030E04CE4E3
:1054C00053E40F94A4A3A50194010F94D1B020E05C
:1054D00030E040E85FE30F94E3AF6093E00E709339
:1054E000E10E8093E20E9093E30E612F70E080E076
:1054F00090E00F945CAA20E030E04CE453E40F9479
:10550000A4A3A50194010F94D1B020E030E040E8BD
:105510005FE30F94E3AF6093E40E7093E50E809326
:10552000E60E9093E70E64EE7EE080EE9EE00F9430
:10553000036260E070E086E193E40F940A1C0F942C
:105540008126002359F0552049F020E030E040E862
:105550005FE3C701B6010F94E2AF04C060E070E002
:1055600080E291EC442D0F948803882309F440C015
:105570002091E80E3091E90E4091EA0E5091EB0E29
:105580006CAD7DAD8EAD9FAD0F94E2AF2DEC3CECDC
:105590004CEC5DE30F9458AA87FF4EC060E070E0CA
:1055A00080EA90E46093E80E7093E90E8093EA0E2F
:1055B0009093EB0E60E070E080EA91E40F940A1C97
:1055C0000F948126002359F0552049F020E030E067
:1055D00040E85FE3C701B6010F94E2AF04C060E0AA
:1055E00070E080E291EC442D0F94880381110BC090
:1055F00085E392E80E94D78B9F938F930F9462A9C3
:105600000F900F9089C02091E80E3091E90E4091E3
:10561000EA0E5091EB0E60E070E080EA90E40F94A7
:10562000E2AF2DEC3CEC4CEC5DE30F9458AA87FF05
:1056300003C081E59EE019C00023D1F02091E80E5F
:105640003091E90E4091EA0E5091EB0EC701B60180
:105650000F94E2AF9F7720E030E040E85FE30F94E3
:105660002EB218162CF481E29EE00F948AA954C041
:10567000C0900207D0900307E0900407F090050760
:105680008FEA9FE00F9448AF8823A9F00F943D6301
:10569000882389F0C701B6010E9468792091280EFD
:1056A0003091290E40912A0E50912B0E0F94D1B0BB
:1056B0009B01AC0103C020E030E0A90177E0719FBD
:1056C00070011124E20CF11CC701880F991F880F8B
:1056D000991FDC01A459BB4E7D016091E80E7091C9
:1056E000E90E8091EA0E9091EB0E0F94E2AFF70174
:1056F00061837283838394838091C8069091C906E5
:1057000001979093C9068093C806539481E00E9444
:105710004C8449CE7EAA6DAA80E090E0A0EAB0E475
:105720008093E80E9093E90EA093EA0EB093EB0EEF
:1057300060E070E080EA91E40F940A1C0F948126E7
:105740004DA95EA94615570509F472C085E090E0A1
:105750000F94233301E0C12CD12C70EAE72E70E4C2
:10576000F72E8AE79AE70E94D78B0F94E6118EE115
:1057700090E00F94C9100F9425531091EA0D1092E8
:10578000EA0D1092E90D20E030E040E85FE360911F
:10579000E80E7091E90E8091EA0E9091EB0E0F9455
:1057A000E2AF6093E80E7093E90E8093EA0E909357
:1057B000EB0E60E070E080EA91E40F940A1C0F9415
:1057C00081260093EA0D1092E90D84E00F94FE4AC1
:1057D000C092E80ED092E90EE092EA0EF092EB0E43
:1057E00060E070E080EA91E40F940A1C0F94812637
:1057F0000F94894A1093EA0D1092E90D82E00F94FC
:105800006E2620E030E040EA50E40F942EB21816E5
:105810000CF4A7CF1092030F81E00E94078941E0AA
:1058200061E081E00F941B5781E080936410CFC347
:1058300089A99AA90F943F570E9452A660916B05BF
:1058400070916C05072E000C880B990B0F945EAAC3
:1058500090582091280E3091290E40912A0E509197
:105860002B0E0F94D1B00E946DA680EC9FE00F9498
:1058700048AF282EBE016F5F7F4F7EAB6DAB10E04F
:105880008DA49EA471E0871A9108C401092C000C14
:10589000AA0BBB0B8DA79EA7AFA7B8AB8CE48983DF
:1058A00082E58A8386E48B8382E48C83ADA9BEA9DA
:1058B0008D91BEABADAB0F943661882329F00F9468
:1058C0006D9B6B017C011BC0B1E02B1285C11230B6
:1058D00028F4112341F08EEB9FE00AC0123031F022
:1058E0008CEB9FE005C08FEB9FE002C08DEB9FE04B
:1058F0000F9448AFC82E880FDD08EE08FF08C114CA
:10590000D104E104F10409F467C1D701C601F7FE2F
:1059100007C088279927DC018C199D09AE09BF09AA
:1059200085369105A105B1059CF08EE798E30F94AB
:105930000C648DEF9DE00F940C64C701B6010F94C9
:105940009E6484EF9DE00F940C640F942D6544C118
:10595000C701B6010F945EAA2FE632E143E85AE38D
:105960000F94A4A32B013C01123039F0133059F0ED
:10597000113009F45DC000E00DC06CE6A62E64E1B4
:10598000B62E00E0A9C05CE6A52E54E1B52E00E0DD
:10599000E6C00F5F031509F41FC1B12C37E0309F3B
:1059A000900111243DAF2CAF8B2D90E08815990507
:1059B00084F7ECACFDACE80EF91E9701220F331F03
:1059C000220F331FF901E459FB4EFAABE9ABB401E6
:1059D000681B790B072E000C880B990B0F945EAA9D
:1059E0009B01AC01C301B2010F94A4A36B017C0124
:1059F0006DA57EA58FA598A90F945EAA9B01AC0109
:105A0000C701B6010F94D1B09B01AC01A9A9BAA9F5
:105A100011966D917D918D919C9114970F94E3AFA8
:105A2000E9A9FAA96183728383839483B394BCCF79
:105A300000E0031509F4D0C03CE1039F500111249C
:105A4000C12CD12CE12CF12CFFEFEF1AFF0A24E03E
:105A5000C20ED11CE314D0F5C6018A0D9B1DAC010A
:105A600044595B4E5AAB49ABB7010F2C000C880B65
:105A7000990B0F945EAA9B01AC01C301B2010F9474
:105A8000A4A36CAF7DAF8EAF9FAF6DA57EA58FA594
:105A900098A90F945EAA9B01AC016CAD7DAD8EAD53
:105AA0009FAD0F94D1B09B01AC01A9A9BAA91196E1
:105AB0006D917D918D919C9114970F94E3AFE9A91D
:105AC000FAA96183728383839483BECF0F5FB1CFC2
:105AD0000F5F44E0A40EB11C031509F47DC06401FE
